:1000000000000420FD990100E5990100E599010037
:10001000E5990100E5990100E59901000000000063
:10002000000000000000000000000000E599010051
:10003000E599010000000000E5990100E599010043
:10004000E5990100E1A5010069970100B192010065
:10005000E1910100E5990100F18E0100E5990100AF
:10006000F9A50100DDA40100E5990100E599010071
:10007000E5990100E5990100E5990100C5B201008B
:10008000E5990100E5A10100E5990100E59901006C
:10009000E5990100E5990100E5990100E599010064
:1000A000E5990100E5990100E5990100E599010054
:1000B000E5990100E5990100000000000000000042
:1000C000E5990100E5990100E5990100E599010034
:1000D000E59901009D900100E5990100E599010075
:1000E000E599010081980100E599010000000000F8
:1000F00000000000E599010000000000E599010002
:1001000000000000000000000000000000000000EF
:1001100000000000000000000000000000000000DF
:1001200000000000000000000000000000000000CF
:1001300000000000000000000000000000000000BF
:10040000034B112283F8382041F610025A867047B8
:10041000640300207047000010B58378052B044664
:1004200002D00D3B012B13D8E3788BB90948214644
:1004300002F056F960B1084B2146186802F09AF9AB
:1004400030B1064B21461868BDE8104002F010BAE2
:1004500010BD00BF7C03002050000020540000208D
:1004600007B5054B0193052300930322034B00F0CE
:100470007DFF03B05DF804FB7C030020B8CA0100D7
:1004800008B5024902F01CF9012008BD7C030020D8
:100490007FB50B46044698B11E4D698C81B1023B75
:1004A000082B0DD8DFE803F0050E0C0C0C1B202CDC
:1004B00030000023009301231A46204602F0E0FB9F
:1004C00004B070BD01268DF80E6002F003FC03AB92
:1004D0000093ADF80C0003233246698CEDE700234E
:1004E000009304220123E8E701238DF80E3002F087
:1004F000F1FB03AB0093ADF80C0003230422ECE7FF
:10050000002300930322D8E7002300930222012353
:10051000D3E700BF6403002007B5054B0193072311
:1005200000930422034B00F021FF03B05DF804FBAD
:100530007C030020D0CA010008B5024902F058FB34
:10054000012008BD7C030020074B132283F83820CC
:1005500041F608025A86054A93F830301373012099
:10056000A023937102F0B0BB64030020500300206D
:1005700010B5C37804468BB90146094802F048FB20
:1005800060B1084B2146186802F0F4F830B1064B10
:1005900021461868BDE8104002F06AB910BD00BFDE
:1005A0007C030020500000205400002010B5837808
:1005B0000E2B04460BD8042B0DD9053B092B0AD86A
:1005C000DFE803F0230909090A090909231C282B7C
:1005D00020D0A02B28D010BDC378002BFBD11C4B02
:1005E00042895B8C9A42F6D11A480123037423880E
:1005F0008380BDE810401E2118F0C6B91548037C61
:100600001BB10023037418F0D1F92046BDE8104057
:10061000FFF7AEBF0F48037C002BDCD00023037430
:10062000BDE8104018F0C2B90A4B1A7C002AD2D09B
:100630000288002ACFD000221A74074B1B685B780F
:10064000002BC8D0BDE81040007801F099B900BF78
:100650006403002050030020A4040020034B102258
:1006600083F8382041F60D025A8670476403002053
:100670007047000010B58378052B044602D00D3B6F
:10068000012B13D8E3788BB90948214602F09CFB73
:1006900060B1084B2146186802F06CF830B1064B87
:1006A00021461868BDE8104002F0E2B810BD00BF56
:1006B0007C030020500000205400002007B5054BAB
:1006C0000193042300930322034B00F04FFE03B079
:1006D0005DF804FB7C030020F0CA010008B5024964
:1006E00002F062FB012008BD7C030020034B1122B5
:1006F00083F8382041F609025A86704764030020C7
:100700007047000010B58378052B044602D00D3BDE
:10071000012B13D8E3788BB90948214602F0DEFBA0
:1007200060B1084B2146186802F024F830B1064B3E
:1007300021461868BDE8104002F09AB810BD00BF0D
:100740007C030020500000205400002007B5054B1A
:100750000193052300930322034B00F007FE03B02F
:100760005DF804FB7C0300200CCB010008B50249B6
:1007700002F0A4FB012008BD7C0300201FB508295E
:100780004AD8DFE801F0050D121730225D496900F3
:10079000414A92F8381004B0BDE8104000F056BD50
:1007A00004B0BDE8104000F01FBE04B0BDE810402A
:1007B00001F066BB384B002283F83920374B1968AB
:1007C00004B0BDE8104002F043B8354B1B681B78FD
:1007D0004BB1314B93F83930022B04D104B0BDE852
:1007E000104001F0CDB82C4C94F839300133DBB215
:1007F000012B84F8393006D12A4B196804B0BDE8C2
:10080000104001F0A7BF022B08D1E36A5B6898474C
:1008100010B9012384F8393004B010BD04210390CD
:1008200000F01EFD002384F83A301E4B03981B682D
:10083000019309221C4B0092062100F097FDEBE783
:10084000154B002283F83A20164B1B6801930922AE
:10085000154B00920621F0E70F4A92F83A30013327
:10086000DBB2012B82F83A3007D10C4B1B680193A5
:100870000323009302220D4BECE7022B06D1D36A2F
:100880009B68062104B0BDE810401847082104B059
:10089000BDE8104000F0E4BC6403002054000020D8
:1008A000A404002050000020CCCB010014CC010097
:1008B00038B505460089103080B217F0A1FE044615
:1008C000C0B12B46024605F1100153F8040B42F863
:1008D000040B8B42F9D104F11000606069682A8929
:1008E0001CF02AF8044B214693F83000BDE838404C
:1008F00017F09BBE38BD00BF64030020F8B5054665
:1009000006F0A0FCAB78262B0CBF2F7A00270446FC
:10091000381880B217F074FE0646A0B12246294668
:100920001CF00AF8AB78262B05D130197060696885
:100930003A461CF001F8044B314693F83000BDE80C
:10094000F84017F072BEF8BD6403002010B50446ED
:1009500001F01CF828B1042C07D1BDE8104001F0CB
:100960000FB8022C08D0042C1CD0114BDB6A214696
:100970001B69BDE8104018470D4B93F836201AB19B
:10098000BDE8104001F0CCBA93F8372072B90121CC
:1009900083F83710074BDA72BDE810404FF47A62E3
:1009A00001F0A0BABDE8104001F028B810BD00BFAA
:1009B00064030020A00300202DE9F0470C46002925
:1009C00000F0E8808978864818F0DAF8A378182BC8
:1009D0003BD8204600F0DEFD204601F0F3FAA37874
:1009E0002E2B43D8042B40F2D580053B292B00F257
:1009F000D180DFE813F04100CF00CF00CF004100ED
:100A0000CF00CF00CF0041004100CF00CF00CF008A
:100A1000CF00CF00CF00CF00CF00CF00CF00CF005E
:100A2000CF00CF00CF00CF00CF00CF004800CF00D5
:100A3000CF00CF0054005C007100F300D100CF0064
:100A4000F1003600D800DF00E600792BC7D8204639
:100A500001F062F8204601F057F9204600F06CFEE4
:100A6000BDE70B20BDE8F04701F0F0BC3C2B00F0E7
:100A7000AD80A02B40F08E805A4BDB6A2046DB68AD
:100A8000BDE8F047184704F0C3FB564A5648002318
:100A9000D386564AD37206F03DF90120E2E7E378A7
:100AA0001BB9504B012283F836200520DAE7E578A0
:100AB0000DB10620D6E74B4B4C4CDD86E37A002B7C
:100AC000F7D04B4818F05CF82146207951F8052BF7
:100AD00001F036FAE572ECE7424D95F83630002B1E
:100AE00058D095F83730002B54D004F10C07E07A39
:100AF000394601F0C5FB064688BB6268217A0320AF
:100B000006F04CFB30B96268217A022006F046FB01
:100B100000283FD00378022B3CD9698EB5F834C049
:100B2000013BDBB24FEA11285FFA81F94FEA1C2A38
:100B30005FFA8CFE021D39B112F8010C404503D159
:100B400012F8020C48450AD0BCF1000F1CD012F874
:100B5000010C504518D112F8020C704514D12548EB
:100B600018F00EF8002385F8373001F0D9F91F4B43
:100B7000E27A1A713A68C3F80520BA88A3F8092006
:100B800001221E60DA7205E0023BDBB2012B02F1AA
:100B90000202D0D8BDE8F087124BDB6A2046DB6842
:100BA000984709205EE70F4BDB6A2046DB689847D1
:100BB0000C2057E70B4BDB6A2046DB6898470D207B
:100BC00050E72046BDE8F04700F0B4BEE1780A489F
:100BD000BDE8F04717F0D4BF0A2043E7082041E7FB
:100BE00024CB01006403002024CC0100A0030020DA
:100BF00034CB010055CB010071CB010010B50B4C7B
:100C0000204606F0AFFA2146032006F035F80848E2
:100C100002F042FE074801F0C1FC02F011FD064857
:100C200000F00EFBBDE8104006F072BAFD080000AF
:100C3000B10800004D0900007D07000001460528AD
:100C400013D8DFE800F003080A0C0E10084B094A1D
:100C5000D3621B681847084BF9E7084BF7E7084BC6
:100C6000F5E7084BF3E7084BF1E7084817F088BFB2
:100C70002800002064030020000000201400002051
:100C80006C0000203C0000205800002094CB0100A4
:100C900010B504460E4817F073FF0E4B0E4A83F84A
:100CA00030400E4B1A600E4B0E4A1A600E4B0F4A24
:100CB0001A600F4B0F4A1A600F4B104A1A6000F06F
:100CC0001BFF00F0B1FABDE810400020FFF7B6BFEF
:100CD000B6CB01006403002034CC0100AC0400203A
:100CE000B00400203CCC0100A804002031CC01005D
:100CF000A4040020C6CB01001402002044CC010053
:100D0000084B094A1A60094B132283F8382041F630
:100D100022025A86064A93F830301373A023937147
:100D2000704700BF100200207CCC0100640300204B
:100D3000AC03002007B5054B019307230093042261
:100D4000034B00F013FB03B05DF804FB7C030020B1
:100D50005CCC010008B5024902F0FAFA012008BD96
:100D60007C030020E0B10339072919D8DFE801F03E
:100D700004181818090F12150A4B01225A7400F0B2
:100D8000FFBD012302220849498C02F027BB012341
:100D90001A46F8E701230422F5E701230322F2E7CC
:100DA000704700BFAC0300206403002010B5C37877
:100DB00004468BB90146094802F0DAFA60B1084BE3
:100DC0002146186801F0D6FC30B1064B2146186860
:100DD000BDE8104001F04CBD10BD00BF7C030020F9
:100DE0005000002054000020F7B58378282B0446DB
:100DF00015D00CD8053BDAB2092A0ED8092B0CD82D
:100E0000DFE803F0660B0B0B4C0B0B0B665F2D2B17
:100E10002DD0A02B62D02C2B18D003B0F0BD394CB4
:100E2000237C23B100232046237417F0BFFD637C8D
:100E3000012BF2D1344A82F83730344B9A88D97971
:100E4000987903B0BDE8F04001F04CB82D4D6B7CB3
:100E5000012BE2D12E4B01930723009300782D4BF9
:100E60000422002100F082FA00236B74D5E7254BA1
:100E70005B7C012BD1D10388274D013B5E0105EB43
:100E80004313A85900271F7210B101F0ABF9AF51FD
:100E9000207803B0BDE8F04000F0F2BFC378002B2B
:100EA000BBD1194B42895B8C9A42B6D115480123BC
:100EB0000374238883801E2103B0BDE8F04017F03F
:100EC00063BD1048037C1BB10023037417F06EFD53
:100ED000204603B0BDE8F040FFF768BF094B1A7C1D
:100EE000002A9AD00288002A97D000221A740B4B4D
:100EF0001B685B78002B90D0007803B0BDE8F04011
:100F000000F03EBDAC0300206403002034CC01009F
:100F10007C0300205CCC010040040020A4040020DD
:100F20000239082924D8DFE801F0161A231E230508
:100F30000B1212000F4B40F2D242998C02F0AEBA63
:100F40000C4940F2D243898C022202F0C3BA094B09
:100F5000998C02F0D9BA074BD98B02F093BA054BA2
:100F6000598C02F08BBA034B0122D98B02F08CBA58
:100F7000704700BF64030020014817F001BE00BFA6
:100F800084CC010010B58378282B04461CD0A02BFC
:100F900021D00E2B24D1C37813BB0146114802F097
:100FA0003BFBE8B11048214602F036FAC0B10F4BC6
:100FB0002146186801F0DEFB90B10D4B2146186800
:100FC000BDE8104001F054BC0A4B00221A70BDE885
:100FD000104002F0AFBABDE81040074817F0D0BD8E
:100FE00010BD00BF7C0300208203002050000020C1
:100FF00054000020C0030020B7CC010007B5054B0A
:101000000193032300930422034B00F0AFF903B0D4
:101010005DF804FB64030020F8CC0100074B1422A8
:1010200083F8382041F61D025A8641F61C029A8642
:1010300093F83000024AA02102F082BA6403002033
:10104000790F000038B5094C25783DB9084902F000
:10105000D3F9237801332370284638BD012D03D1FD
:10106000044902F0C9FAF4E70125F5E7C0030020BE
:10107000820300207C03002030B52F4D2F4C89B017
:10108000284619F06FFA204613F0C0FA2B2204F11B
:101090000C01022018F093FD17F0A6FA4FF400613E
:1010A00017F0FEF917F090FA2549E38B40F20D1284
:1010B0000A811433627B8A728B81227FE37E134420
:1010C0008B73042017F0ECF880B217F07DFA17F05C
:1010D00013FB17F047FC1B4817F094FD012017F095
:1010E0008BFD01F027F840F20443ADF810300423E3
:1010F0008DF812300395059417F076FA069017F0E4
:1011000079FA079003A80BF05FF817F05DFA062252
:1011100001A9002018F053FD01A813F05BFB01A802
:1011200014F0EAF800F010F8FFF768FD17F042FB42
:10113000002009B030BD00BFC4030020D003002050
:1011400080000020F984010010B509F0A5FA09F02B
:101150000FF909F0EDF909F03DFA214817F0B6FA58
:1011600006F048FD1F4817F0B1FA0446002005F0CC
:10117000E1FF05F05DFD06F0A3FB05F01FFF06F0A3
:101180007DFC06F0C5FC06F0A7F9204606F01CF829
:1011900006F0D8FD06F032FE134817F097FA02F079
:1011A0003DFB03F0F1FF03F023FE03F03BF80F4893
:1011B00017F08CFA07F0BAFD09F084F809F078F816
:1011C000642016F0A1F90A4817F080FA00F080FBBD
:1011D000084817F07BFABDE81040FFF759BD00BF83
:1011E000097C0000E171000061380000918D000071
:1011F000DD180000B9090000072903D8084B1B6857
:1012000006211847082909D1064B03EB001313F8F0
:10121000083C1BB9024B07211B68F2E7704700BF6F
:101220003404002004040020044B0022DA721A6007
:10123000DA761A6183F82B201A62704704040020C2
:10124000014B1860704700BF34040020431E034860
:1012500000EB031081724260704700BF040400205D
:101260002DE9F04100220C460821461E074605F0F4
:10127000EFFD082C204D4FEA061603D1AB191B7A5F
:10128000072B01D0AB195C72AB19A8594FF00008BD
:1012900083F80B8018B117F08FF845F806803846B0
:1012A00000F080FB804608B3384600F009FB0028B8
:1012B00014BF08230423082C03D1AA19127A072A81
:1012C00005D0A34203D32146404601F0A4F8AB1950
:1012D000596859B1042C09D1404601F0A1F82246C1
:1012E00039460648BDE8F04117F04ABC082C04BF57
:1012F000AD192C72F3E700BF0404002018CD0100E3
:101300002DE9F74F441EDFF860A0DDF834B024016A
:1013100017465AF8042098460C9B019305460E4642
:10132000D146BAB128460122082105F091FD09EB0A
:101330000403012259F80410DA72019B81F80C8031
:10134000C1E9003B32463B46284603B0BDE8F04FBA
:1013500002F060BB142017F00FF84AF804000028D0
:10136000E0D103B0BDE8F08F040400202DE9F14F77
:10137000451E1B4E9DF82890DDF82CA02D019846A7
:10138000735904468B46174603B3012208212046B1
:1013900005F05EFD73190222BBF1070FDA7201D16D
:1013A00083F808B071592046C1F808804F73C1F81E
:1013B00004A081F80C9002F07FFC68B9094B1B680F
:1013C0000821204601B0BDE8F04F1847142016F060
:1013D000D3FF70510028D8D101B0BDE8F08F00BF15
:1013E00004040020340400200A4B07B5421E03EB1E
:1013F0000213DA7A52B90321D972074B0192009392
:101400004FF6FF720223012103F01FFA03B05DF8CB
:1014100004FB00BF04040020BADC01002DE9F04108
:10142000244C461E4FEA061804EB06160746F37ACC
:10143000002B3CD100F0B6FA054670B100F0E8FF91
:101440000646032E13D84444237B1B4C3BB9236828
:1014500001213846BDE8F0411847767AF1E7384671
:1014600000F02EFA0028F2D023680321F1E7052EC0
:101470001DD0B5B1444463689BB1284600F0A1FF7C
:1014800020B13846BDE8F041FFF7AEBF2846D4F89A
:10149000048000F0C3FFA27A0146520040461BF0D0
:1014A0004BFA31463846BDE8F041FFF7A5BEBDE82E
:1014B000F08100BF04040020340400202DE9F8432B
:1014C000194B441E4FEA041803EB041407466068E6
:1014D000002525816573A573994680B1A27A2946B6
:1014E00052001BF037FA384600F05CFA064630B17D
:1014F000294600F090FF6168304600F091FF09EB4B
:101500000803DA7A022A03D101229A73BDE8F8832C
:10151000064A1268127812B11B7B002BF6D03846AF
:10152000BDE8F843FFF77ABF04040020A8040020B8
:101530000389042BF0B418D142685178137803EB77
:1015400001239BB28BB1D478917801EB042189B24D
:101550008B420AD800880E4A441E270102EB04146D
:10156000656815B1A47A023D0CB9F0BC704735F836
:10157000026F9E4201D38E4202D9013CE4B2F3E7EE
:101580003A44D37A012BF0D0F0BCC0B2FFF796BF3B
:10159000040400202DE9F04104460078E378122B82
:1015A00000F1FF3501D1FFF789FFDFF888812F01B6
:1015B00008EB05154646E97A03294ED1A378042B9A
:1015C00040F0AB80E37894F800802BB1544B1B685B
:1015D0004046BDE8F0411847EB72404600F0E2F9A2
:1015E000054680B9404605F0EFFB0546404605F04C
:1015F000F5FB0146284600F0BDFD4A4B03EB4813BE
:10160000054643F8200C284600F0CFFE64680334FA
:10161000102221461BF082F958B12146284600F0DD
:10162000C6FE0121284600F0CFFE3D4B03211B687A
:10163000CEE73E442846746800F0F0FEB27A0146D8
:10164000520020461BF078F9284600F0E1FE0146E2
:101650004046BDE8F041FFF7CFBD01292DD1A37869
:10166000032B11D1214658F8070002F0E3F9054693
:1016700001462D4817F084FACDB958F807102078A4
:10168000BDE8F04102F0FEB9042B01D0022B44D199
:101690002146F05902F008FA05460146234817F0A2
:1016A0006FFA25B91E4B1B680421207891E7792D2C
:1016B00033D01B4B05211B68F7E702292DD1A378F6
:1016C000052B01D0092B28D1F31920789A7B32B150
:1016D0000022BDE8F0419A73DA72FFF79FBEE3780B
:1016E000052B01D00F2B09D105F0A8FB30B93E44E2
:1016F000012373730A4B02211B68D6E7F159207846
:1017000002F0DEFA05460146094817F039FA792D4C
:1017100003D0034B08211B68C7E7BDE8F08100BF79
:10172000340400204004002040CD010062CD0100BF
:1017300081CD0100040400208378273B2DE9F0418E
:101740000446052B2ED8DFE803F003202D2F8192CD
:101750000078574D431E05EB0315564B00261B68BA
:101760002E81AE81AE7331469847686820B1AA7A5F
:10177000314652001BF0EEF84F4B1B681B788BB9BB
:101780002078BDE8F041FFF749BE0378484C013BA3
:101790001D0104EB031360590026DE7210B116F030
:1017A0000BFE6651BDE8F0810078414D431E1F01DC
:1017B00005EB031393F80C80B8F1000FF2D100F0A1
:1017C000F1F8064680B1207800F07AF860B1304632
:1017D00000F0F7FD40B12288384B03EB421341463D
:1017E00053F8200C00F0F0FD334B20781B681B7879
:1017F0002BB1FFF713FE3D4401232B73D2E700F01A
:101800005FF80028F7D005EB070898F809100029C1
:10181000F1D076B1304600F0FEFD98F80930042B87
:1018200001D0082B05D1EB19596811B1304600F0F1
:10183000F7FDEB195A7B002ADDD0E95900225A73D3
:101840000029D8D0207802F040FAD4E70078184B6D
:1018500003EB001313F8043C002BA3D1164B1B68B9
:101860005B78002B9ED0BDE8F041FFF7BDBD03794A
:10187000002B97D000780E4C431E1D0104EB031380
:101880001A7B002A8ED10C4A126812782AB1FFF70F
:10189000C5FD2C440123237384E7597B0029F8D02C
:1018A00061595A730029F4D002F00FFAF1E700BF32
:1018B0000404002034040020A80400204004002078
:1018C000024B03EB401313F81B0C7047400400203D
:1018D000014B187000F04CBCA004002010B50C4661
:1018E000F1B18978114817F04BF9A3781F2B05D96E
:1018F0000F4B5B682046BDE8104018470F2B02D9FC
:101900000B4B1B68F6E713B1012B04D010BDBDE8EB
:10191000104000F039BE2046BDE8104000F032BE55
:10192000C306F3D5BDE8104000F036BEA2CD0100DD
:101930003804002013B543790446D3B104210DEBDC
:10194000010008F0BBFE01990C4AB1FBF2F302FB67
:10195000131320780193ADF800306A461B0C032165
:101960008DF8023006F070F8019800F0F7FD02B033
:1019700010BD0E2000F06AFDF9E700BF40420F00E5
:1019800001461322032005F087B90000044B1879A3
:1019900020B993F8240008B993F84400704700BFB9
:1019A00040040020024B03EB401353F8200C704717
:1019B00040040020104B03EB411373B553F8204C47
:1019C000054616F061F8A0B120460022042100F07F
:1019D00077FC044668B1867D06F066F82A88019295
:1019E00001220346009204F110012246304605F020
:1019F000A5FD02B070BD00BF4004002008B5094835
:101A000017F0BEF800F030FC16F03EF848B105F0D3
:101A1000F9FB10B1002005F0D3FDBDE8084005F04A
:101A2000BDBD08BDB1CD010038B50446C8B100F058
:101A300003FDB0B1204600F005FD054688B9024619
:101A40000421204600F03CFC58B100F110010122B5
:101A5000807D05F0CBFD29462046BDE8384000F0EA
:101A6000EEBC38BD70470000F0B50546106885B083
:101A70000E46144680B10DF10F02022100F020FC49
:101A8000024648B101239DF80F10A3712372284626
:101A900006F07AF805B0F0BD002EFBD0154E336885
:101AA0001B7803F00103E3716BB123685BB928462F
:101AB00005F08AF90746284605F090F901463846B0
:101AC00000F058FB20600023E372336828469F78BB
:101AD00005F07AF9316801284FF00103237208BF3D
:101AE00047F002074B780A78C9780097284606F035
:101AF0002BF8CFE7B0040020044B4FF47F42A3F84B
:101B00009420034B034A5A60704700BFB40400207E
:101B100038040020651A00002DE9FF418378A3F105
:101B20002702012A044601D9402B12D125886A1EBA
:101B3000714D05EB4215282B0DD81F2B10D9203BDA
:101B4000082B0DD8DFE803F00F0C0C0C14283261C1
:101B500065000025EFE7372B64D0402B00F0AE8006
:101B600004B0BDE8F081654BFF2283F89520F7E7CC
:101B7000E278002AF4D1614BFF2183F88C200A22FD
:101B8000013A12F0FF02997103F10E03F8D15B4B99
:101B9000002283F89420E3E7E378002BE0D1574B51
:101BA000574893F88C1016F0EBFFD9E7534D0A26EF
:101BB0002F4604F10C08AA79E37A9A4217D0AB7940
:101BC000FF2B1BD1E37AAB7104F10C01284616F010
:101BD00062F8A37CEB7104F1130105F1080016F023
:101BE0005AF897F88C30013387F88C30B8E74146C3
:101BF000284616F055F80028E1D0B1E7013E16F06E
:101C0000FF0605F10E05D6D1AAE7207805F05CF8AD
:101C1000A6E72868FFF708FF384A00232B7182F8EF
:101C200094309DE7354D95F89430A846002B97D019
:101C3000E37895F88D602BBB2388C6EBC6077F0041
:101C40009BB90E2303FB0653DC79012C0DD15B7B82
:101C500003F0C003402B08D105F026FF08370146EA
:101C60002246E81905F04AFC7AE700F059F90E20FF
:101C700000FB0686D8F89020B07908EB070100F049
:101C80005FF984E7052B82D1D5F8900000283FF456
:101C90007EAF00F0CDFAC5F8900000283FF477AF92
:101CA0000421002200F00CFB014600283FF46FAF36
:101CB000C6EBC606002205EB4600D3E7114B1B68B6
:101CC0001B788BB9E288ADF804202289ADF8062094
:101CD0006289ADF808202879A289ADF80A2001A907
:101CE000039305F01BF83BE7012B7FF439AF28790C
:101CF000112105F02FF833E740040020B404002040
:101D0000C5CD01009000002038B505460088B0B16F
:101D1000444A441E02EB4414AB78273B182B35D8B9
:101D2000DFE803F00F1C3422323534344034344FB2
:101D3000343434343434346B78343434620004460C
:101D4000EAE700236371E3802372374B1B6819793C
:101D50002246C0B2BDE83840FFF786BE2068A8B171
:101D6000BDE8384000F048BA2B79DB070CD5206875
:101D70000123637140B1E17A00F038FA23681BB1A6
:101D800021792846FFF716FE0023237238BDA37978
:101D9000002BFBD02B79002BF8D00123637100239B
:101DA000A371F2E7E379002BF0D020680028EDD092
:101DB000E37AAA7F1343E3722946BDE8384000F076
:101DC000A2BAC0B205F03AF858B9174B1B681B7994
:101DD000002BDBD1237A002BD8D122460121287891
:101DE000B8E722460021FAE7EB78002BCED105F0C8
:101DF00009FABDE8384001F031BCEB78002BC5D1C1
:101E0000002CC3D020680028C0D00121BDE8384094
:101E100000F015BBE9780029B8D120680028F5D179
:101E2000B4E700BF40040020B00400202DE9F047D3
:101E30000E4617461D4613460A460146032005F086
:101E400079F8044678B1DFF8348001384FEA401958
:101E500008EB4010C246047145B1284600F0D2F9A3
:101E600020B148F809502046BDE8F0873946304691
:101E700000F006FA4AF80900F5E700BF4004002028
:101E800038B50B4B1B681B7904467BB9094A451EC4
:101E900002EB45152B7A4BB904F0D0FF30B92A4636
:101EA00020460121BDE83840FFF7DEBD38BD00BF48
:101EB000B00400204004002008B5084A92F895308C
:101EC000FF2B04D1002382F89530012005E0002B80
:101ED000FBD0034816F054FE002008BDB4040020D7
:101EE000D6CD010030B585B0044615468DF80F10EB
:101EF000FFF7E2FF78B1094B196801208A1C05F051
:101F0000E5FB0023CDE9005301230DF10F0221462B
:101F1000184605F097FB05B030BD00BFAC040020AB
:101F200008B5FFF7C9FF38B1044B002283F89420AD
:101F3000BDE8084005F0B8BB08BD00BFB4040020F0
:101F400070B504460D461646FFF7B6FF38B1334666
:101F50002A4621460120BDE87040FFF767BF70BDEB
:101F600010B5044600F042FA014620B16068102224
:101F70001AF0D4FCA8B1606800F03CFA03210020FC
:101F800000F026FA0321002002F064FD054816F057
:101F9000F7FDBDE810404FF6FF720121002000F070
:101FA00073BC10BD0CCE010008B54389122B08D1BB
:101FB0000078FFF7F7FC20B1BDE80840002100F0F1
:101FC00007BA08BD8378122B03D0152B03D1FFF776
:101FD000C7BFFFF7E9BF7047012873B504460E4637
:101FE00023D9032823D188681AF094FC0546706829
:101FF0001AF090FCC0B2431E022B06D90D482146B0
:1020000016F01EF9012002B070BD0B4AB5FBF2F3C9
:1020100002FB1353ADF8043001AA1B0C21468DF8C6
:10202000063005F011FD0020EDE70220EBE703206C
:10203000E9E700BF22CE010040420F00022870B540
:102040000E465AD903285AD14D682F4928461AF00E
:1020500089FCC0B12D4928461AF084FC002850D1D3
:102060000224B6682A4930461AF07CFC68B929482F
:10207000294616F0E5F8012C18BF0624204600F08A
:1020800093FA002070BD0124EBE7234930461AF093
:1020900069FC40B92148294616F0D2F8012C0CBF42
:1020A00002240724EAE71E4930461AF05BFC40B9D7
:1020B0001C48294616F0C4F8012C0CBF0324082440
:1020C000DCE7194930461AF04DFC40B9174829465B
:1020D00016F0B6F8012C0CBF04240924CEE71449ED
:1020E00030461AF03FFC60B90E48294616F0A8F8B1
:1020F000012C0CBF05240A24C0E70220C2E70320FC
:10210000C0E70120BEE700BF49CE01004BCE010071
:102110008AD6010087CE010030D301004DCE0100E8
:1021200065CE010067CE010080CE010082CE0100A5
:10213000FFDD010008B5094816F0D8F9084815F088
:1021400003FF084816F0C2FA15F014FF064815F010
:1021500001FFBDE80840054815F0FCBEBD81010047
:10216000F98401006D80010094000020A40000208B
:102170007047000070B5194B93F82F2006460D46A6
:10218000DAB193F8F320D2B193F8B721D2B903F5BD
:10219000C474C422002120461AF0DCFB012384F819
:1021A0002F302046A671294615F075FD002384F8CE
:1021B000313084F83230204670BD1C46E9E703F127
:1021C000C404E6E706490C6803F5137004F1C40281
:1021D000824208BF1A460A60DBE700BF4C050020B8
:1021E000B4000020002380F82F307047012380F8CE
:1021F000303080F82E10704790F830300BB980F8EE
:102200002F307047094A0146032092F82F3023B13E
:1022100092F830300BB1914206D0431E13F0FF000C
:1022200002F1C402F1D17047012070474C05002033
:1022300010B5044648B1FFF7E5FF28B104F1C4002A
:10224000074B984203D3002010BD0648F8E790F8EA
:102250002F201AB190F83020002AF5D1C430F0E7D1
:10226000980700204C050020044B002283F82F2003
:1022700083F8F32083F8B721704700BF4C05002096
:10228000F8B50E4604F0D0FF0C4C0746032594F831
:102290002F3043B9013D15F0FF0504F1C404F6D118
:1022A0002C462046F8BDA379BB42F3D131462046E7
:1022B00015F0F6FC0028EDD0F3E700BF4C05002038
:1022C00010B590F82E30044611EA03000DD0013904
:1022D000072916D8DFE801F0040A151015151512A4
:1022E00094F84E30137004F1340010BD94F86A3045
:1022F000137004F15000F8E7E01DF6E704F11E004A
:10230000F3E70020F1E730B48B7F013B072B17D8B0
:10231000DFE803F0041816291616163DCB7F80F867
:102320004E3000F134020B1D01F11C05186859688C
:10233000144603C40833AB422246F7D11B881380EE
:1023400030BC7047CB7F80F86A3000F150020B1D23
:1023500001F11C0518685968144603C40833AB42E0
:102360002246F7D1EAE70B1DC21D01F1180453F80C
:10237000045B42F8045BA342F9D11C8814809B786B
:1023800093708B7E837130BC143115F084BC0B1DAF
:1023900000F11E02143153F8044B42F8044B8B42F7
:1023A000F9D10023C0F88030CAE787307047873002
:1023B00001F1100351F8042B40F8042B9942F9D194
:1023C000704790F88600704780F8861070470000CC
:1023D00038B9054B83F8841083F8481183F80C1240
:1023E000704780F8841070474C0500200048704703
:1023F000AD07002040B1054B00F1100250F8041B5E
:1024000043F8041B9042F9D1704700BFAD0700208C
:1024100090F8C200704780F8C2107047983070473B
:10242000983001F1280351F8042B40F8042B99420D
:10243000F9D10B880380704790F83100704780F81D
:102440003110704790F8320070470000431E10B5FD
:1024500004461C2B13D8DFE803F00F121B1D1F21AD
:10246000232527292B2D2F31121212333537393BD3
:102470003D3F4143454749001E4816F081FB1E4B36
:102480005B68002B34D020460021BDE8104018477F
:102490001A48F2E71A48F0E71A48EEE71A48ECE75C
:1024A0001A48EAE71A48E8E71A48E6E71A48E4E76C
:1024B0001A48E2E71A48E0E71A48DEE71A48DCE77C
:1024C0001A48DAE71A48D8E71A48D6E71A48D4E78C
:1024D0001A48D2E71A48D0E71A48CEE71A48CCE79C
:1024E0001A48CAE71A48C8E71A48C6E71A48C4E7AC
:1024F00010BD00BFCCCE0100C0070020E3CE01001C
:10250000FFCE01001BCF010034CF01004DCF0100F1
:1025100072CF01008CCF0100A6CF0100CDCF01000A
:10252000E4CF010001D001001BD0010040D0010028
:1025300063D0010075D0010088D00100A9D001004E
:10254000CAD00100E8D001000AD101002CD101005D
:1025500055D101007ED10100ACD1010010B501467A
:102560000446064816F00CFB054B5B6823B1214678
:102570000F20BDE81040184710BD00BFD3D10100A7
:10258000C007002070470000024B9B6803B118474A
:10259000704700BFC007002070470000014B186063
:1025A000704700BFC0070020024B1B6803B11847EB
:1025B000704700BFC00700202DE9F74F0446E1B186
:1025C000067816F0020514BF0E22072216F0040842
:1025D00018BF023216F008071CBF013292B216F083
:1025E00010031CBF023292B28A42019307D92C48D1
:1025F00003B0BDE8F04F16F0C3BA0722F7E78279BF
:102600004379017903EB0223C278807802EB01223F
:10261000617801EB00219BB2224892B289B216F098
:10262000AFFA1DBBE51DB8F1000F08D06B7815F8A7
:10263000021B1D4801EB032189B216F0A1FA27B154
:1026400015F8011B194816F09BFA019B3BB16B78FA
:102650002978174801EB032189B216F091FA154841
:10266000314603B0BDE8F04F16F08ABA227AE3791A
:1026700094F80B9094F80CA094F80DB0617A0E4881
:1026800003EB02239BB2A27A16F07AFA0B485B4660
:102690005246494604F10E0516F072FAC3E700BF30
:1026A000E7D101000CD2010062D2010076D2010014
:1026B00083D2010099D201003AD201004BD201002D
:1026C00007B5054B01910093044A05230221FEF74B
:1026D00017FE03B05DF804FBB8000020A6DC010083
:1026E0004B8902889A4210B50C4608D10E4816F064
:1026F00047FA21896068FFF75FFF002010BD8288DC
:102700009A4201D10948F2E702899A4209D14B68FD
:1027100007485A78197801EB022189B216F030FA8D
:10272000EBE70A20EAE700BFA8D20100B7D2010018
:10273000D2D201001429064B28BF142110B50A4635
:102740000C46014618461AF0F7F80022025510BD53
:10275000CC07002007B5054B01910093044A0923DB
:102760000221FEF7CDFD03B05DF804FBCC00002094
:10277000B2DC01004A8908B50B460188914209D1B3
:1027800019895868FFF7D6FF0146284816F0F8F96E
:1027900000204AE04188914206D119895868FFF724
:1027A000C9FF01462248F1E78188914206D1198983
:1027B0005868FFF7BFFF01461E48E7E7C18891420E
:1027C00006D119895868FFF7B5FF01461A48DDE7B9
:1027D0000189914206D119895868FFF7ABFF01467C
:1027E0001648D3E74189914206D119895868FFF705
:1027F000A1FF01461248C9E78189914206D11B8990
:10280000082BC5D10F4816F0BBF9C1E7C189914229
:1028100002D119890C48B9E7018A914204D11B8978
:10282000072BB5D10948EEE70A2008BD0CD30100FB
:1028300015D3010023D3010032D3010043D301009B
:1028400054D3010065D3010077D30100A5D3010063
:1028500007B5054B01910093044A03230221FEF7BB
:102860004FFD03B05DF804FBF0000020BCDC01006C
:1028700008B54A8903889A4204D10846FEF758FEF3
:10288000002008BD0A20FCE773B5144B1E780446EF
:102890001D46A6B1ADF80410ADF8062088B9012494
:1028A0006978204602F016F828B101AB0422122103
:1028B000204602F0BDFA0134E4B2042CF0D102B09B
:1028C00070BD597802F006F80028F8D001AB042258
:1028D0001221204602F0ACFAF1E700BFE107002028
:1028E0002DE9F74F0446B9B1057815F0010814BF7A
:1028F0000C220A2215F0020718BF033215F0080354
:102900001CBF023292B28A42019307D9364803B003
:10291000BDE8F04F16F034B90A22F7E7837846781D
:10292000027990F8079090F808A090F809B04179E2
:1029300006EB03262D4BB6B21E80C37803EB0223B1
:102940009BB282792A4816F01BF92A485B46524608
:10295000494616F015F9B8F1000F39D104F10A080B
:1029600037B398F8013098F80020234802EB03228F
:1029700093B2120544BF6FEA03516FEA11514FEA57
:10298000133254BFC3F30B0109B2B3F5004F2CBF90
:1029900062F00F0252B216F0F3F898F802101748DE
:1029A0000A0901F00F0116F0EBF808F10304A04644
:1029B000019B4BB198F8013098F80010104801EBDA
:1029C000032189B216F0DCF80E48324629469EE70C
:1029D000E37AA17A0C4801EB032109B204F10C0857
:1029E00016F0CEF8BCE700BF14D40100E4070020C5
:1029F0003AD201004BD2010044D4010063D401005B
:102A00007BD4010093D4010032D401002DE9F74FAB
:102A100000292BD0057815F0010314BF06220322EC
:102A200015F0020A18BF013215F004091CBF01326B
:102A300092B215F008081CBF033292B215F01007CD
:102A40001CBF033292B215F0400618BF02326CB2BE
:102A500018BF92B2002CBCBF013292B28A4207D991
:102A60004B4803B0BDE8F04F16F08AB80322F7E7F1
:102A7000827890F801B0002C0BEB022B1FFA8BFB35
:102A80007DDBC41CE3B1A2786378217803EB0223D9
:102A900098B21B0544BF6FEA00526FEA12524FEA28
:102AA000103354BFC0F30B0212B2B0F5004F28BF71
:102AB00063F00F03374838BF5BB2033416F060F899
:102AC000BAF1000F04D014F8011B334816F058F87F
:102AD000B9F1000F07D014F8011B30480A0901F0C2
:102AE0000F0116F04DF8B8F1000F0BD06378217884
:102AF000A2782B4801EB032189B216F041F804F1CA
:102B000003084446E7B1A2786378217803EB0223F7
:102B10001F0598B244BF6FEA00526FEA12524FEAA3
:102B2000103354BFC0F30B0212B2B0F5004F28BFF0
:102B300063F00F031B4838BF5BB2033416F020F874
:102B4000CEB163782278184802EB032293B21205C3
:102B500044BF6FEA03516FEA11514FEA13324CBF81
:102B600009B2C3F30B01B3F5004F2CBF62F00F02A3
:102B700052B216F005F80D485A46294671E7C17859
:102B80000193041D0A4815F0FBFF019B7AE700BF83
:102B9000B7D40100F6D4010013D501001ED5010001
:102BA00036D501005CD501007DD5010093D401002C
:102BB000DDD40100042902D00A4815F0E1BF0378F2
:102BC000052B06D1C3788178074801EB032189B230
:102BD000F3E7062B04D1C2788178044815F0D0BF02
:102BE000704700BF8CD50100AFD50100C5D50100ED
:102BF00007B5054B01910093044A07230221FEF714
:102C00007FFB03B05DF804FBFC000020C4DC010086
:102C10004B8902889A4210B50C4608D1154815F028
:102C2000AFFF21896068FFF75BFE002010BD82883E
:102C30009A4207D1104815F0A3FF21896068FFF779
:102C4000E5FEF2E742899A4204D109896068FFF7FC
:102C5000B1FFEAE702899A4209D14B6807485A78DE
:102C6000197801EB022189B215F08AFFDDE70A200D
:102C7000DCE700BFE4D50100F2D5010008D6010071
:102C800010B586B0089CB1B18DF804208DF80530E0
:102C90009CB1A3788DF80630012B11D123888DF8D3
:102CA00007301B0A8DF808300DF1090201ABD21A6A
:102CB00092B201F0EFFC06B010BD0DF10602F5E78F
:102CC0000DF10702F2E70000014B1880704700BFCA
:102CD000E4070020014B1888704700BFE40700207C
:102CE0002DE9F8430D46B1B1077807F001031E4600
:102CF00017F0080914BF0436023617F010081CBF7D
:102D00000236B6B28E4208D9324629462148BDE87D
:102D1000F84315F035BF0226F6E74178E3B1837832
:102D200001EB032189B2C41C1B4815F029FFB9F13E
:102D3000000F08D0637814F8021B184801EB032138
:102D400089B215F01DFFB8F1000F07D139461448BC
:102D5000BDE8F84315F014BF841CE5E7AD1BADB228
:102D6000AB1C9EB2DB0748BF0135DFF8388048BF97
:102D7000AEB2023414F8013C14F8021CB51E01EB8B
:102D8000032189B24046AEB215F0FAFE0234002E9D
:102D9000F0D1DBE758D6010079D601008CD60100CE
:102DA00099D201009FD6010007B5054B0191009310
:102DB000044A04230221FEF7A3FA03B05DF804FBE2
:102DC00018010020CCDC01004A8908B50B460188B7
:102DD000914205D119895868FFF782FF00200BE066
:102DE0008188914207D15B6819780629F6D8034893
:102DF00015F0C6FEF2E70A2008BD00BFB2D60100FA
:102E00002DE9F047044681B1057815F0020714BF9B
:102E10000C22052215F0040618BF01328A4206D999
:102E2000BDE8F0471F4815F0ABBE0522F8E7C378B0
:102E300082781B0403EB02234278134402791A4878
:102E400003EB02621B024CBF42F07F4122F07F4144
:102E5000121615F095FE5FB9671D1EB1397813483B
:102E600015F08EFE29461248BDE8F04715F088BEE1
:102E7000A279637994F8098094F80A9094F80BA0E9
:102E8000E1790C4803EB02239BB2227A15F078FE1D
:102E9000094853464A46414604F10C0715F070FEB6
:102EA000DBE700BFECD601000ED7010022D70100FE
:102EB00099D201003AD201004BD2010007B5054B6F
:102EC00001910093044A05230221FEF719FA03B089
:102ED0005DF804FB28010020CEDC01004B8902884C
:102EE0009A4210B50C4608D10C4815F049FE2189CC
:102EF0006068FFF785FF002010BD82889A4201D1EB
:102F00000748F2E702899A4205D14B6805481978CB
:102F100015F036FEEFE70A20EEE700BF32D70100DA
:102F20004AD7010060D701002DE9F84F0446D1B11E
:102F3000037813F0010514BF0C22052213F00207D9
:102F400018BF023213F004061CBF033292B213F012
:102F500008081CBF023292B28A4206D94348BDE833
:102F6000F84F15F00DBE0522F8E78378427802EBA2
:102F70000322100593B243BF6FEA03516FEA115168
:102F800009B2C3F30B011A0BB3F5004F2CBF62F06B
:102F90000F0252B2364815F0F3FD2379E278354836
:102FA00002EB0322110593B243BF6FEA03516FEAAC
:102FB000115109B2C3F30B011A0BB3F5004F2CBF2B
:102FC00062F00F0252B215F0DBFD002D32D1651D0B
:102FD00047B16B7815F8021B274801EB032189B232
:102FE00015F0CEFD56B169782B78244803EB012308
:102FF000A97803EB0141033515F0C2FDB8F1000FCC
:1030000031D06B782A781E4802EB032293B2120566
:1030100044BF6FEA03516FEA11514FEA13324CBFBC
:1030200009B2C3F30B01B3F5004F2CBF62F00F02DE
:1030300052B294E7A279637994F8099094F80AA0BF
:1030400094F80BB0E1790F4803EB02239BB2227A8C
:1030500015F096FD0C485B465246494604F10C05B6
:1030600015F08EFDB4E7BDE8F88F00BF9CD70100D6
:10307000C1D70100DED70100FCD7010027D801002D
:103080004FD801003AD201004BD201002DE9F8439C
:103090000446F9B1057815F0010914BF072205228D
:1030A00015F0020818BF023215F004071CBF0232E7
:1030B00092B215F008061CBF033292B215F010054B
:1030C0001CBF023292B28A4206D96C48BDE8F8436E
:1030D00015F056BD0522F8E783784278684802EB80
:1030E000032293B2120543BF6FEA03516FEA1151F5
:1030F00009B2C3F30B011A0BB3F5004F2CBF62F0FA
:103100000F0252B215F03CFD2379E27802EB032264
:10311000100593B243BF6FEA03516FEA115109B230
:10312000C3F30B011A0BB3F5004F2CBF62F00F0273
:1031300052B2544815F024FDB9F1000F67D105349F
:10314000B8F1000F32D06378227802EB0322100529
:1031500093B243BF6FEA03516FEA115109B2C3F34F
:103160000B011A0BB3F5004F2CBF62F00F0252B2E5
:10317000454815F005FDE378A278444802EB0322A8
:10318000110593B244BF6FEA03516FEA11514FEA40
:1031900013324CBF09B2C3F30B01B3F5004F2CBF80
:1031A00062F00F0252B2043415F0EAFC47B16378C2
:1031B00014F8021B364801EB032189B215F0E0FC3C
:1031C00056B161782378334803EB0123A17803EBF0
:1031D0000141033415F0D4FC002D4CD063782278E3
:1031E0002D4802EB032293B2120544BF6FEA03514C
:1031F0006FEA11514FEA13324CBF09B2C3F30B010E
:10320000B3F5004F2CBF62F00F0252B25EE7A37914
:103210006279224802EB0322110593B243BF6FEAA1
:1032200003516FEA115109B2C3F30B011A0BB3F545
:10323000004F2CBF62F00F0252B215F0A1FC237AAE
:10324000E279174802EB032293B2120544BF6FEAFA
:1032500003516FEA11514FEA13324CBF09B2C3F365
:103260000B01B3F5004F2CBF62F00F0252B20934CC
:1032700015F086FC64E7BDE8F88300BF9CD7010029
:10328000C1D70100DED70100C2D80100E4D8010097
:10329000FCD7010027D801004FD801007DD80100DC
:1032A0009FD80100042902D00A4815F069BC0378B0
:1032B000052B06D1C3788178074801EB032189B239
:1032C000F3E7062B04D1C2788178044815F058BC86
:1032D000704700BF8CD50100AFD50100C5D50100F6
:1032E000012970B515D90546427815F8023B03EB64
:1032F000022313F0010614BF0422022213F0020479
:1033000018BF02328A4206D9BDE870400D4815F058
:1033100037BC0222F8E746B1C378817801EB03217C
:10332000051D09B2084815F02BFC4CB16B782978C3
:10333000064801EB0321BDE8704009B215F020BC3E
:1033400070BD00BF07D901002FD9010064D9010069
:1033500007B5054B01910093044A07230221FDF7AD
:10336000CFFF03B05DF804FB3C010020DEDC010070
:103370004B8902889A4210B50C4608D1144815F0C2
:10338000FFFB21896068FFF7CFFD002010BD828818
:103390009A4207D10F4815F0F3FB21896068FFF7C7
:1033A00075FEF2E742899A4204D109896068FFF705
:1033B00079FFEAE702899A4207D1074815F0E0FB56
:1033C00021896068FFF78CFFDFE70A20DEE700BF96
:1033D00094D90100BBD90100E1D901007FB539B111
:1033E0008DF804208DF80530022201AB01F052F96E
:1033F00007B05DF804FB000007B5054B0191009391
:10340000044A05230221FDF77BFF03B05DF804FBAE
:1034100058010020FADC01004A89C3889A422DE94C
:10342000F0410C4621D1124815F0AAFB65682B78B3
:10343000202B02D00020BDE8F081AF780D48B4F811
:1034400000806E7815F0B2FA012F0CD1012E0AD14E
:10345000EB78094A1468002CECD03A4631465FFA02
:1034600088F0A047E6E70023F3E70A20E3E700BF80
:1034700034DA0100EC070020E807002009B101F070
:10348000F1B87047FFF7FABF7FB521B1019201ABE8
:10349000042201F0FFF807B05DF804FB30B50546E3
:1034A00087B00C4689B1012309488DF805202D21EC
:1034B000120A8DF804308DF8062015F065FA01AB7C
:1034C00003222146284601F0E5F807B030BD00BFD1
:1034D000EC07002030B5054687B00C4681B10221CB
:1034E00008488DF804102D218DF80520ADF8063020
:1034F00015F04AFA01AB04222146284601F0CAF829
:1035000007B030BDEC07002030B5054687B00C464B
:1035100061B1032306488DF804302D2115F034FAEB
:1035200001AB01222146284601F0B4F807B030BDB6
:10353000EC070020014815F039BA00BFEC07002065
:10354000024B187499721A60704700BFE807002098
:103550002DE9F041044661B1057815F002060CBF73
:1035600003220A228A4206D9BDE8F0411C4815F020
:1035700007BB0322F8E78378427802EB0322EB07CC
:1035800092B223D564231748B2FBF3F103FB112257
:1035900092B215F0F5FA9EB12279E378E679277AAE
:1035A00094F809806179104803EB02239BB2A27959
:1035B00015F0E6FA0D4843463A46314615F0E0FA72
:1035C00029460B48BDE8F04115F0DABAC823B2FB32
:1035D000F3F103FB112292B2064802EB8202D8E714
:1035E00084DA0100A7DA01003AD201004BD20100CF
:1035F00099D20100B9DA010007B5054B019100939A
:10360000044A03230221FDF77BFE03B05DF804FBAF
:103610006C01002002DD01004A8903889A4210B53E
:103620000C4608D1054815F0ABFA60682189FFF710
:103630008FFF002010BD0A20FCE700BFCBDA01009D
:1036400008B5044801F056FEBDE80840024801F004
:1036500051BE00BF90010020A4010020014B187052
:10366000704700BFFE07002070477047704700009A
:1036700083780178272B70B51B4E044601F1FF3586
:103680000ED114226A43B318C08899731721B1521E
:10369000002298819A7099809A7119819A721A61A0
:1036A000142000FB0565AB7B93B1336C2146DB68CE
:1036B00028469847F36B2146DB6828469847A3784D
:1036C000282B05D128690023AB7308B114F074FED0
:1036D000336D0BB120469847F36D1BB12046BDE812
:1036E0007040184770BD00BF14080020137A13F013
:1036F000010F034B14BFDB6B1B6C1B68184700BF2B
:103700001408002070B504780F4E1423013C03FB0D
:1037100004640546A37B33B18278A378012A03D1E0
:1037200043F00203A37070BD23F00203A370336C57
:103730005B689847A3789B07F5D4F36B28465B68D2
:10374000BDE87040184700BF140800207047000013
:1037500008B503460278054802735B78437310226C
:1037600019F0DCF8B0FA80F0400908BDB80100207B
:103770001FB50C4CA46D94B18DF803300023ADF847
:1037800008308DF80C30BDF81830ADF800008DF819
:103790000210ADF80A20ADF80E306846A04704B01C
:1037A00010BD00BF14080020934228BF134607B580
:1037B00030F821209A4208D020F8213000930023CD
:1037C000807B1A461621FFF7D3FF03B05DF804FB98
:1037D000002114F01DBF000030B421B9818930BC34
:1037E000042004F0DBBA054D6D6D15B1AC4630BC5C
:1037F000604730BC184614F00FBF00BF140800200B
:1038000000EB40000844704710B50323B0FBF3F30E
:1038100003EB4304001B10700B7010BD08B50A4A7F
:103820000A4B0B4983F86000C3E90F22094A0420C0
:10383000C3E91122084A04F0A7FABDE80840074985
:10384000002003F019BA00BF80DC0100140800203A
:10385000ED36000090DC01000537000071360000F5
:103860000846B1B191F902308A78002B094B02DA8F
:10387000DB6C73B118475F2A02D95B6C9B68F9E770
:103880003F2A01D99B6CF9E71F2A8CBF1B6CDB6BAD
:10389000F4E77047140800200A4B07B5986514F048
:1038A000EDF8094B1B689B880338984206DC002220
:1038B0000092022377211046FFF75AFF03B05DF80C
:1038C00004FB00BF14080020100200201B2906D0B2
:1038D0001D2914BF00230B23C01A14F09DBE0B2317
:1038E000FAE72DE9F8430E688D7C00220B4606EBC3
:1038F000850511466FF0004C96469C7C1F7BA742C5
:1039000005D81C7B9D7CA54240D1002238E02F6861
:103910003F797F0726D55F686444620037F814104A
:10392000941C01313A5B27F804E089B29142E8D94E
:1039300093F80C8093F8129008F1FF3409F1010715
:10394000A4EB0904FFB25FFA84F9B8454C464FEA8C
:10395000840438BF002425442CBF4C46002427444F
:103960009F74CAE7013404359C74C6E756F82210E8
:103970000979890703D5596831F8121059B1013214
:10398000D1B28C42F2D80020BDE8F883012300F0C8
:1039900051FE7920F8E77620F6E770B58C688A7CCE
:1039A0004D7B0B4604EBC2049A7CAA4201D3002053
:1039B0000AE06679596831F8161049B1227922B1C6
:1039C000236800F067FE792070BD00F04BFEFAE737
:1039D00001329A740834E7E708B5034610461A79AD
:1039E00002F0010290420BD1002808BF02221868A1
:1039F00018BF102218F092FFB0FA80F0400908BDFD
:103A00000128FCD122B91868BDE80840FFF7A0BE24
:103A10000020F4E71FB50021CDE9013100924FF4F9
:103A200020534FF6FF72012100F0DEFE05B05DF875
:103A300004FB000038B50B468978032905D00F48F0
:103A400015F09EF87524204638BDDC78002CFAD19C
:103A50001A8982B15B685A78197801EB022189B220
:103A6000C181DD789A7802EB052292B20282044885
:103A700015F086F8E7E70A24E5E700BF04DD01005A
:103A800021DD010007B54FF47F434B8201230193F1
:103A9000044B00930A8AC989022300F0D6FE03B0C2
:103AA0005DF804FBACDC01002DE9F04F0D46897890
:103AB000042985B004460AD0022900F093807A4890
:103AC00015F05EF87525284605B0BDE8F08F95F82D
:103AD00003A0BAF1000F0ED0E37CFF2B7DD10023B1
:103AE000A37428782146FFF7FCFE05460028EAD09B
:103AF00079280DD13FE06E682B89F31816F801BBC9
:103B00000093BBF1070F2DD0BBF1150F62D07325C9
:103B1000227B60685200002118F01CFFD3E7727806
:103B20003378F77803EB0223327907EB0227E27C44
:103B3000FF2A9BB2BFB206D06168581E21F812005E
:103B40004FF0FF32E274BB4241D2238ABB423ED3E4
:103B5000D4F80090711D0023227B5FFA83F8424560
:103B60000BD85E44009BB342D9D8EB78002BB3D17D
:103B70002B7B002BB0D07925A5E74FEA48020192B4
:103B8000626832F81820F2B9D9F80000039352465F
:103B90000291FFF721FFDDE90213A0B16368019AEA
:103BA0009F52237B013B984508DAD9F804301B79F2
:103BB0005A0744BF08F1010884F813803B4839468E
:103BC00014F0DEFFCDE709F104090133C4E73848FA
:103BD0003946F5E74FF0010AC4E76268218A22F806
:103BE00013107CE795F803B0BBF1000F0FD0A37C56
:103BF0002268207B02EB83020133DBB283423FF475
:103C00006FAF52F8041F09794907F5D468E76E6869
:103C10002B89F31800933378012B40D0022B7FF4CB
:103C200076AF4FF0010B4FF0120A3AE0A77C16F87E
:103C3000023C01934FEA8709236816F8018CA9F129
:103C400004099944237BBB421AD959F8040F03791C
:103C50005B0715D5616831F817107B00E1B95A464A
:103C600031460293FFF7B8FE029BA8B1019A606843
:103C700002EB08281FFA88F1C1520E4814F080FFA9
:103C80005644009AB31E9A42D0D8EB78002BAED19E
:103C90002B7B002BABD06EE70137FFB2D2E74FF0A2
:103CA000040A0336EDE700BF04DD010049DD010031
:103CB0006ADD01007EDD010000228A74FFF76DBE1F
:103CC0008A7C01328A74FFF768BEFFF766BE000087
:103CD00070B500238568836083790A2B044607D07A
:103CE00014238377064B1B681830997914F04CFE27
:103CF0002A88A17B20682B46BDE87040FFF76CBD89
:103D000010020020408D002818BF012070470000DD
:103D10008279024B53F82230184700BF14DE0100AD
:103D200030B403460C46051D07C985E80700A27894
:103D300061680B2A08BF09680A681A6103F110005C
:103D40004A68426030BC1846FFF7E2BF70B50546CE
:103D50000E4603F02FF8044640B18424013D2C2088
:103D6000654310FB06540448204470BD03482946AF
:103D700014F006FF2046F8E7780800209BDD0100DC
:103D800010B50C4602F0FCFF38B1013884234343E0
:103D90002C2010FB04310148084410BD7808002095
:103DA00038B50D4600211446FFF7EAFF034600B37D
:103DB000217A192905D822462946BDE8384000F065
:103DC00025BB1B2901D01D2906D1224629461846AC
:103DD000BDE8384000F08CBB232905D12246294696
:103DE000BDE8384000F0ECBABDE83840014814F0B6
:103DF000C7BE38BDB3DD010010B50446406818B138
:103E000014F00AFC0023636010BD000010B50368C5
:103E1000827B03EB820304469A78D10709D50430EC
:103E2000FFF7EAFF0023A3710548BDE8104014F036
:103E3000A7BE42F00102BDE810409A70FFF748BFEC
:103E4000CEDD0100012913B503D000240094FFF753
:103E50008FFC02B010BD13464A8D10B50C4622B13E
:103E60000A21FFF7EFFF0023638510BD38B500215D
:103E700004460078FFF76AFF054648B1207800F055
:103E800044FC207829460022BDE83840FFF7E3BF14
:103E900038BD10B50446FFF71BFF2068A37B00EB7D
:103EA00083039B7813F0020307D1A289807B0A2148
:103EB000FFF7C8FF0023A37110BD638D002BF9D15C
:103EC000A3896385F6E770B50C4616460546084695
:103ED000FFF792FF33462289A1782846FFF7B2FF09
:103EE0000023A37070BD000070B5C379058A012B53
:103EF00004464AD1036890F8282033F82230053B65
:103F00009D42A8BF9DB205F10D0080B2FFF760FC95
:103F10000646002831D0A368024603F10C0153F88D
:103F2000040B42F8040B8B42F9D11B7813706169C2
:103F30002A4606F10D0018F0FFFC63692B4463610B
:103F4000238A5B1B2382638AF372638A1B0A33739F
:103F5000638A2B4463821423A3770E4B1B6804F1FE
:103F60001800997914F010FD6A1DA17B2068334672
:103F700092B2BDE87040FFF72FBC94F82900211DD4
:103F80007022BDE87040FFF79EBF00238668836003
:103F9000D9E700BF1002002070B5C3798568012BF6
:103FA00004462CD12888083080B2FFF711FC054662
:103FB000E8B1A1680A88083218F0BEFCA279A37C97
:103FC000062A1FD1EB72638A1B0A2B731423A37773
:103FD000104B1B6804F11800997914F0D5FC2A885D
:103FE000A17B20682B46BDE87040FFF7F5BB94F835
:103FF0002900211D7022BDE87040FFF764BF002337
:104000008360DBE76B72638A1B0AAB72A38AEB7275
:10401000A38AD9E71002002070B50546827A81781C
:10402000444814F0ADFDAB78113B012B0AD8424B4C
:10403000D3F8B031002B43D029461B68BDE870404F
:1040400000201847A97A2878FFF780FEAB7804464D
:1040500038B9013B102B33D82846BDE87040FFF734
:10406000CBBE102B33D890F8286046B990F82920A1
:1040700031490C2000FB021292F88E214AB9A27934
:10408000012A06D80A2B0CD129892046FFF73AFECF
:1040900038B17222294694F82900BDE87040FFF734
:1040A00012BF76B9012A0CD194F82930224A0C218A
:1040B00001FB032395E8070003F5C67383E80700B7
:1040C00070BD29462046BDE87040FFF729BE132B7E
:1040D0001CD18379012B05D9183014F067FC7422A8
:1040E000211DD8E794F8283090F82900002BE7D15B
:1040F000114B0C2101FB003292F88E21002ADFD0F7
:1041000001FB0031742201F5C671C6E7142BD7D12B
:104110008379002BD4D07122011D90F82900FFF77C
:10412000D2FEAA7A236803EB82039A7842F0040253
:104130009A70C5E7E0DD0100780800202DE9F84F0E
:104140008B78272B06461AD1807B02F0B9FE002817
:1041500061D1324C23689D8813F090FC043885426D
:1041600008DA23689988172955D0B07BBDE8F84F45
:1041700000F0B4BA13F082FC011F89B2F3E7282BD8
:1041800049D1CC7804B90C7AB07B254F0C2101FBC6
:104190000073203493F88E31E4B233B101FB007127
:1041A000224601F5C671FFF78EFEB1464FF00008BA
:1041B0004FF02C0BB57B0BFB08F1013D842303FB77
:1041C000051507EB050A9AF806205AB105F1180003
:1041D000384414F0EBFB291D9AF829002246394493
:1041E000FFF771FE99F8022022F0120289F80220EE
:1041F000D7F8B0211AB15268214650469047B07B9B
:104200002246514608F10108FFF725FEB8F1030FD9
:1042100009F10409CED1BDE8F88F00BF10020020DB
:104220007808002070B5124912480023C1F8B03157
:1042300090F86060012381F8B43105460A460024F5
:1042400082F828400134032C106082F824609383A4
:1042500082F8293002F12C02F2D101339BB2042BF7
:1042600001F1840100F11400E8D1034BEB6370BD50
:10427000780800201408002004DE0100817999707C
:10428000481F012808D901F0FD0109291FBFD07A74
:10429000917A01EB00215981127B1AB1DA70002268
:1042A0001A8170477522F9E72DE9F0438779557A2D
:1042B0000831022F114402F10A022AD1012D0CBF4C
:1042C00002251025B0F812C04FF6FF7E8A4210D2A8
:1042D0005478167806EB0426B6B246B1BCF1000F4E
:1042E00005D0B44503D8B0F81480B04517D2732276
:1042F000DA70DB785BB9C379012B08D1BCF1000F10
:1043000003D0838A01339C4529D10023C371BDE8C2
:10431000F083042F0CBF023D043DEDB2D2E7082F1D
:104320001AD192F80390947804EB0924A4B20432D1
:10433000002CDCD0A642DAD8A445D8D8A045D6D3E4
:10434000744518BF01342A4414BF1FFA84FC4FF08F
:10435000000C9142BAD2CAE702323446F0E7A0F824
:1043600012C0A0F80CC0D2E7704700221A81704733
:104370002DE9F041937A547A0F4F056890F8286040
:1043800004EB0324A4B23B68172CB3F8048038BFB5
:10439000172413F073FB0438804508DA3B689B88C8
:1043A000224631462846BDE8F041FFF7FDB913F03B
:1043B00065FB031F9BB2F3E710020020704700006B
:1043C0001FB5137A5B108DF8023003689B7BADF844
:1043D000003000238DF803308DF80C300A4B9B6DB4
:1043E0000932013904460192ADF808100BB1684654
:1043F000984794F82820236803EB82039A7842F0C8
:1044000010029A7004B010BD140800202DE9FF417D
:104410001546827904460F46002A46D0297A4B0871
:1044200049088DF8023001D09A423ED104F11800BB
:1044300014F0BCFA05F1090301937B1EADF80830B6
:10444000A3899DF80220ADF80A30264B002653F8C8
:1044500022808DF803606B462A4639462046C047C5
:10446000E37913B19DF803301BB1A671201DFFF74E
:10447000C3FC9DF80230012B0AD01B4B9B6D3BB156
:10448000E2798DF80C20A288ADF8002068469847A4
:1044900094F82850236803EB85039B789B0704D48A
:1044A000A3682BB12046FFF733FC04B0BDE8F081D0
:1044B000002DFAD194F829100C4E0C2707FB01634C
:1044C00093F88E31002BF0D007FB016101F5C67126
:1044D0002046FFF725FC94F8293007FB036383F897
:1044E0008E51E2E758DE0100140800207808002011
:1044F0001FB5137A04465B10907A8DF802300B32A8
:1045000012F8023C0192226803EB0023927BADF883
:1045100000209BB200220339ADF80A30ADF8081034
:104520008DF803208DF80C2023B1144B9B6D0BB13B
:104530006846984794F828202368114903EB8203C2
:1045400091F8B4119A78A1B19DF802100E2910D1FA
:1045500093070CD40920FFF73BF9034638B11E221C
:104560000272216801228989042003F017FC04B03B
:1045700010BD42F010029A70F9E700BF1408002045
:10458000780800202DE9F0470646884617461D4664
:104590009DF8209014F067F800213046FFF7D6FB15
:1045A000044630B303689C78B3F800A0C4F38004D9
:1045B00014F05BF8BAF1000F36D07CBB25B10B2F9D
:1045C00019D02B889A451ED30C2014F019F80146F7
:1045D00050B300238372164B068080F803908770D7
:1045E0004560A0F8088093F86000BDE8F04714F03B
:1045F0001CB88246DCE7B9F1000FE5D12B681B88B7
:1046000005339BB2DEE77723424639463046FFF753
:1046100019FC2846BDE8F04713F0FEBF712342465F
:1046200039463046FFF70EFC002DF2D1BDE8F08789
:1046300014080020F7B505460D201E460C46174607
:10464000FFF7C6F8034658B1052202800422027221
:10465000448087800222009621462846FFF792FF79
:1046600003B0F0BD37B505460B200C46FFF7B0F898
:10467000034668B1032202800A220272220A827271
:10468000002244722146009228460522FFF77AFF55
:1046900003B030BD2DE9F341074602F10B0080B2B3
:1046A0000D4616469846FFF793F8044698B1F31C5A
:1046B0000380122303722B0A8372457232464146ED
:1046C0000B3018F039F900230093092223462946BC
:1046D0003846FFF757FF02B0BDE8F08137B5054611
:1046E0000B200C46FFF774F8034660B103220280EA
:1046F00044720222240A0021027284720122009173
:104700002846FFF73FFF03B030BD013810B5002148
:1047100080B2FFF735FB0446C8B103689B7803F00D
:104720001203102B13D10920FFF752F8034670B182
:1047300021688A7822F010028A701E220272216893
:104740000122BDE810408989042003F027BB10BD79
:10475000F0B50831458A02F109060A444FF6FF71A7
:10476000964217D27478377896F803C007EB04277F
:10477000B47804EB0C24BFB2A4B2A74206F104063D
:1047800006D8BD4204D8B0F814C0BC4500D36DB9FA
:104790007322DA70DB7843B9C379012B05D115B1E7
:1047A000838AAB420AD20023C371F0BD8C421ABF88
:1047B0000134A5B20025B242D2D2E9E74582858113
:1047C000F3E7C279012A10B50DD1026890F82840AC
:1047D00032F824208A429BBF428A1B8900239B18FF
:1047E0008CBFC371438210BD2DE9F14FBDF8288005
:1047F000DDF82CB09DF830A0074608F10F0080B21C
:104800000E4691461D46FEF7E3FF0446D0B108F17F
:1048100007030380457306232D0A4680A0F8049001
:1048200003728573424659460F3018F085F82346C7
:10483000032231463846CDF828A001B0BDE8F04F3C
:10484000FFF7A0BE01B0BDE8F08F2DE9F14F07469C
:1048500003F10D00DDF828B09DF82CA00E4690461F
:104860001D461FFA83F9FEF7B3FF0446C0B10823C3
:1048700009F10509A0F800904680A0F804800372B1
:104880002A4659460D3018F057F82346042231467F
:104890003846CDF828A001B0BDE8F04FFFF772BE52
:1048A00001B0BDE8F08FC279012A02D1028A02B9B3
:1048B000C2715A6804325A601A89043A1A817047E0
:1048C000034B013853F8200008B130F8110070474D
:1048D000300A002038B50C46054602F0AFFA084B06
:1048E000DB6804EB440203EB42031B79834205D8E7
:1048F00021462846BDE83840FFF7E2BF002038BD1A
:10490000300A002010B5104B1A7B82421C461AD088
:10491000187330B90D4814F033F9BDE8104000F0B9
:104920001DBB0B4814F02CF96378022B04BF012344
:104930006370E378022B04BF0123E3706379022BD9
:1049400004BF0123637110BD480A00209CDE0100F2
:10495000BFDE0100014B187B704700BF480A0020F2
:10496000094B421E13F8120010F0010009D003EBAE
:1049700042035B78032B05D1A1F112035842584141
:1049800070470120704700BF480A002002292DE926
:10499000F04705460C46904602D10020BDE8F0875E
:1049A0001E29FAD0284E06EB4009470099F801303D
:1049B000032B10D14A062ED40122811889F8012038
:1049C000224814F0DDF816F81530DB0723D4082C44
:1049D000E3D1002022E0012BF9D111F040021AD1DD
:1049E00000F1010A89F801201848514614F0C8F86E
:1049F000B368002BEBD099F801104A465FFA8AF0B1
:104A00009847E4E71228C9D111482246691C14F0DE
:104A1000B7F81220C2E7082CF6D1122098F80E2021
:104A200098F80D3003EB02239BB242F62A329342F0
:104A3000E8D1337B002BB0D03E4402220348727091
:104A4000691C14F09DF8A8E7480A0020D9DE01008F
:104A5000FCDE01000A460E4B014688B9597802294E
:104A600014BF114601215970D978022914BF11468B
:104A70000121D9705979022908BF01225A71704762
:104A800003EB4003034803F8012C14F079B800BF8E
:104A9000480A0020D9DE0100012A0346084605D84D
:104AA0000349013B01EB430117F046BF704700BFCC
:104AB000480A0020024B03EB400313F8010C704737
:104AC000480A002007B51346002200920A46122128
:104AD000FEF74EFE03B05DF804FB00002DE9F04345
:104AE0008378212B85B005463AD1017A007800F011
:104AF000C7FA044628B9686813F08EFD05B0BDE812
:104B0000F0836B6893F808805E88B8F11D0F4FD171
:104B1000028D171E18BF0127002A4CD02878722258
:104B20003146FFF7CFFFE6E7236903EB85039B7868
:104B300013F002030FD1B8F1230F5FFA89F005D10A
:104B4000009732461321FEF713FED7E71A46314687
:104B5000FFF7B8FFD2E7638D002BCFD16685CDE795
:104B6000222BCBD100880DF10F020DF10E01FEF7C3
:104B70004BFE9DF80E009DF80F10288000F080FA83
:104B800004460028BAD0C38C002BB7D00026018D74
:104B9000C68471229DF80E00FFF794FF26852A7ABD
:104BA000236903EB82039A7842F004029A70A5E726
:104BB000478D002FB2D1B5F800902D7A1A88206960
:104BC0002946FEF709FEB8F11D0FADD1222394F856
:104BD0002510A37194F824002685E684FEF710FEC4
:104BE000034BA0801B682046997913F0CDFE85E722
:104BF0001002002070B50C46098D0546164619B105
:104C0000FFF760FF00232385618D29B132462846D6
:104C1000FFF758FF0023638570BD00008B78282BB9
:104C20002DE9F047064623D1CC7804B90C7ADFF899
:104C300044902034E4B24FF0000A84274FF02C084F
:104C4000B57B08FB0AF0013D07FB05054D44EB8CE5
:104C500023B1284613F0AAFE0023EB84B07B224642
:104C600029460AF1010AFFF7C5FFBAF1030FE7D1A0
:104C7000BDE8F087580A002010B5002104460078EE
:104C800000F0FEF9014628B120780022BDE810406E
:104C9000FFF7B0BF10BD00002DE9F74F9046064664
:104CA0001F469DF8383001930D46DDF830909DF891
:104CB00034B013F0D8FC4146304600F0E1F9044628
:104CC000002840D0036903EB880233F828A09478C9
:104CD000C4F3800413F0C9FCBAF1000F3FD0002CDC
:104CE0004CD129463046FFF73BFE002837D0BA1C8E
:104CF00052453DDA0C2013F083FC044678B321239F
:104D00008370019B068080F80880F3B1A9F10B0342
:104D10004360606800B3FB1C0380019B45804572C3
:104D20002D0A80F808B0857223B93A4649460B30FF
:104D300017F002FE144B93F86000214603B0BDE863
:104D4000F04F13F072BC8246C4E707F10B0080B24B
:104D5000FEF73EFD6060DCE7204613F05DFC019B42
:104D600073B15946484603B0BDE8F04FFEF7AEBDFB
:104D7000772229463046FFF7A5FEF0E77122F8E7D3
:104D800003B0BDE8F08F00BF14080020C38C37B516
:104D900004464BB313F00AFEE08C01A900F076FB49
:104DA00080B112490068022217F0B8FD054648B9E3
:104DB00094F82400FFF77EFE20B194F824002946E1
:104DC000FFF748FE0023E38494F82520236903EBD2
:104DD00082039D7815F0020506D1218D94F82400F8
:104DE0002A46FFF76FFE258503B030BDEADC0100DF
:104DF00010B50C4B93F860000B4B01221C4691B28E
:104E00000132042A1873998083F83800198683F8D0
:104E10006400A3F85C1003F18403F0D1034BC4F8E1
:104E2000AC3110BD14080020580A002034DF010006
:104E300030B585B014461D2500220093CDE90152FE
:104E40002346FFF729FF05B030BD0000024BD3F821
:104E5000AC315B68184700BF580A00202DE9F041CB
:104E600005460D201C469DF818800E461746FEF795
:104E7000AFFC034670B184720122240A02724772A9
:104E8000C47280F80C80314628460522BDE8F04106
:104E9000FEF7A2BCBDE8F08138B5074D044694F892
:104EA000243005EBC30303F5C67013F0B3FC00B95F
:104EB00038BD13F081FAF2E7580A00208B78282BCE
:104EC0002DE9F047DFF8489005460E4607D0D9F89F
:104ED000AC3131462846DB68BDE8F047184700276B
:104EE0004FF08408AC7B013C08FB047409EB040020
:104EF000FFF7D2FFA87B01F0D3FF430704D514349A
:104F000009EB040013F052FD2C37842FEAD1DEE7C1
:104F1000580A002038B50F4D2B681B680446BBB1FA
:104F200003690421987B012201F092FF0A4B93F858
:104F3000603084F820302023A37623699B7B238371
:104F40002B6804F114001968BDE8384013F01CBD4B
:104F500038BD00BF10020020140800202DE9F043E6
:104F600000272A4C85B0B8464FF011092369002B61
:104F700033D02088083080B2FEF72AFC054600288E
:104F80003DD0092303721223437223695B88837225
:104F900023695B881B0AC372236903A9588800F040
:104FA00075FA064608B382684168128805F10C0359
:104FB000184617F0C1FCB268A18912880346134451
:104FC00005F108029A1A92B22B46042002F0E6FE7E
:104FD000206913F0F1F9C4F810800137032F04F1B0
:104FE0001404C3D105B0BDE8F08323690A221B88ED
:104FF0000092014608222046FFF730FFE8E72369C8
:1050000008221B88CDF800900146F4E71408002020
:1050100030B51A490246087810B10020087030BD3A
:1050200014686578237803EB05239BB2B3F5245FFE
:1050300007D019D842F60204A3420ED8B3F5205F78
:10504000EDD393681B8802339BB2927BD2074CBF8F
:1050500003F11000981C80B2E1E742F60304A3427A
:10506000DDD101230B70ECE742F603118B4203D92B
:1050700042F605118B42D2D10223E6E7140C002040
:1050800070B505460E4601F095FE044640B18424F5
:10509000013D2C20654310FB06540448204470BD9C
:1050A0000348294613F06CFD2046F8E7580A002013
:1050B00044DF010010B50C4601F062FE38B1013842
:1050C000842343432C2010FB04310148084410BDC5
:1050D000580A00202DE9F7438846002181461546ED
:1050E000FFF7E8FF064620B32C7A122C03D9A4F16F
:1050F0001603082B20D8670833699B781B0701D556
:105100000F2F16D12A4621464846FFF73FFC70B3C1
:10511000AA7A6B7A03EB02239BB2022C09D01E2CD5
:1051200007D014F0400104D1009030692246FFF707
:1051300095FE03B0BDE8F083522C06D0202C06D09B
:10514000D22C0CBF11270027D6E70A27D4E7102757
:10515000D2E70B4AD25D424506D82A464146304640
:1051600003B0BDE8F043184703460420D5E7054BDC
:1051700053F82730002BECD103460620CDE700BFC3
:105180006CDF0100C8010020144B154970B50022E6
:10519000C3F8AC111349C3F8B011C3E9692212492D
:1051A00016460846012502240132D2B2032A1961AB
:1051B000D963996683F8242083F8256083F850200A
:1051C00083F8515083F87C2083F87D4001F114016D
:1051D00003F18403E8D1054B036470BD580A002035
:1051E00080DC010069360000140800205CDF01004B
:1051F00007B54FF0240C0023CDE9003C034B93F896
:10520000603005F051F903B05DF804FB140800208C
:105210002DE9F043364FD7F8A44185B00026A4B954
:10522000304613F0A9F8804660B1D7F8A471CDE9F3
:105230000044CDE902440446E7B932464146684697
:10524000FFF7D6FF05B0BDE8F083A57C237CD4F83A
:1052500004800135ED1AEDB208EB0515A84501D122
:105260002468DCE74046FFF7D3FE0644B6B208F1F7
:105270001008F3E7B7F810907D687B8A4B4501D2A0
:105280003F68D9E72846FFF7C3FE00B34FEA19236A
:1052900084F800906370AB7B13F0010F2B681CD077
:1052A000A21C03F1100153F804CB42F804CB8B424B
:1052B000F9D1123410230233984208D0AB686968E0
:1052C0001A88204617F038FBAB681B881C4409F18C
:1052D00001091FFA89F91035CFE75A781B7803EBDB
:1052E00002239BB2A3701B0AE37004340223E2E79B
:1052F000580A002010B5044613F0B5F90B4BD3F84B
:10530000A43100221BB1208A198A88420AD2214680
:10531000074813F09BFA0120FFF7F4FABDE81040AC
:1053200013F0A3B91A461B68ECE700BF580A002027
:10533000FC0B002073B505460E46144613F093F996
:10534000284601A900F0A2F8054698B18389B34226
:1053500012D321464068324617F0EEFAAC7B14F0C7
:10536000080402D0AB6800241E8013F07EF92046AA
:1053700002B070BD0A24F8E70D24F6E730B589B015
:105380004FF4A81304468068049300251023069365
:105390008DF81C50ADF81E5010B113F00DF8A5603B
:1053A0006068102112F06EFF6368059303AB0193F0
:1053B00002AB009302220A4B4FF6FF71012000F06E
:1053C000C7FA18B1059A1021FFF7B4FF0020FFF7C4
:1053D00099FA044B04A89B6D984709B030BD00BFF3
:1053E000BADC01001408002010B48378202B05D10A
:1053F000007810BC0022042101F02ABD222B05D820
:10540000094BD3F8AC319B6810BC1847232B03D150
:10541000054BD3F8B031F7E7242B02D110BCFFF7CE
:10542000ADBF10BC704700BF580A002010B504463D
:105430001346A27B0068D20709D402290CD10A4680
:10544000194617F06BFAB0FA80F0400910BD102928
:10545000F5D00146184602E01029FAD11946BDE8F8
:105460001040FEF775B9022903460CD10078117877
:10547000884206D158785378C31A58425841C0B26E
:1054800070470020FBE71146FEF762B910B5094AE4
:105490000346D2F8A40150B1028A9A4208D8448A3D
:1054A0009C4205D3086040689B1A00EB031010BDB6
:1054B0000068F0E7580A002030B50B4BD3F8A43150
:1054C0000BB918460FE01C8A844204D98C4201D9DA
:1054D0001B68F5E720465D8A8542F9D35B68041BAB
:1054E00003EB0414146030BD580A00200B422DE970
:1054F000F04106460D4617461C4605D101290CBF52
:1055000002200320BDE8F081102908BF1C0914F017
:105510000E0F01D10020F5E701F090FC220700D525
:1055200088B104F00A030A2B01D101280BD96307C3
:10553000F0D5074BD3F8B4313BB13A462946304653
:10554000BDE8F04118470520DCE70820DAE700BF96
:10555000580A0020F0B585B00DF10F01044615463C
:1055600090F824000122FFF797FA9DF80F102048C9
:1055700013F006FB9DF80F309B070AD50623009316
:1055800094F82510206900230222FFF767FC05B07C
:10559000F0BDAB7A6E7A174D06EB0326B6B22B68D8
:1055A000172E9F8838BF172612F068FA04388742F2
:1055B00018DA2B689D880B20FEF70AF9034648B1DC
:1055C000290A032202724572817294F8251020691B
:1055D000FEF702F994F8251020692B463246FEF7B3
:1055E000E3F8D4E712F04AFA051FADB2E3E700BFD3
:1055F0007EDF0100100200202DE9F04F937A92F82F
:10560000098008EB03281FFA88F885B00646B8F130
:10561000000F78D0117B92F80BB00BEB012B1FFA27
:105620008BFBD8456FD8036990F8252033F822907A
:1056300009F108091FFA89F0FEF7CAF805460028A3
:1056400063D0052303720123437200F10E04A944C1
:1056500040464FF6FF7A03AA5946271FFFF72CFF53
:10566000D0B1039B9B7BDB072FD505F10A039F423B
:105670004DD138700223000A07F8013C7870039B73
:105680001B6805F10C0203F1100153F8040B42F8FA
:10569000040B8B42F9D1123705F10A039F4236D130
:1056A000284612F0B9FF0A243046FFF733FC96F87B
:1056B000251074BB05F10802BA1A30692B4692B264
:1056C000FEF78AF805B0BDE8F08F4C452246E3D8D6
:1056D000030A04F8040C04F8033C039B1B681B78C2
:1056E00004F8023C039B1B6850455B7804F8013CBE
:1056F00007D0013080B2834504F10404ABD21746D1
:10570000CAE72746C8E70124CEE71124CCE70024E6
:10571000CAE73069009443460422FFF79FFBD1E7B4
:105720002DE9FF41036990F82510557A33F821706F
:10573000937A05EB0325ADB2044603A92846FFF78B
:10574000A5FE0646002855D02069F37B807B2A46BB
:105750000121FFF7CBFE034680B9B27B510716D576
:105760000399D1F80880B8F1000F10D022692946BA
:10577000907B00960A22C047034650B1009394F8EC
:10578000251020692B460A22FFF768FB11E09306DB
:1057900012D4B368B3F800807A1E9045A8BF904633
:1057A0001FFA88F707F1090080B2FEF711F80546E5
:1057B00078B904B0BDE8F0810F4BD3F8B881B8F1E7
:1057C000000FE6D020697368807B2A460521C04718
:1057D000D2E70B23037271681FFA88F2093017F0C1
:1057E000ABF87A1C94F8251020692B4692B2FDF78D
:1057F000F3FFDEE70123C1E7580A00202DE9F04F4F
:105800000369174690F8252033F8223089B0044602
:1058100003F1080080B20D460593FDF7D9FF8046DD
:1058200000287CD0013DABB24FF0000B039300F198
:10583000090A0B37D9465D46039B1BB9BBF1000F24
:1058400061D02DE017F8013C17F8025C05EB032549
:10585000039BADB2991E8BB2284607A90393FFF7AD
:1058600015FE064600286ED02069F37B807B2A4611
:105870000121FFF73BFE0490002860D1B37B5A075B
:105880001CD5079AD2F808B0BBF1000F16D02369D7
:105890002022987B049B00962946D847834678B1FE
:1058A00040462121FEF712F894F825102069CDF822
:1058B00000B02B462022FFF7D1FA30E09B0631D40E
:1058C000059BA3EB0902B3681B88093A9A42A8BF5B
:1058D0001A465346C2F3072103F8022B1FFA82FB34
:1058E0008AF801105A461846716817F025F8B3680F
:1058F0001B8809F10202DA461BFA82F25B458244F8
:105900001FFA82F91BD9212388F8083009F1010216
:1059100094F825102069434692B2FDF75DFF09B067
:10592000BDE8F08F094BD3F8B8B1BBF1000FC7D079
:1059300020697368807B2A460521D847AEE7DDF8E9
:1059400010B0023778E74FF0010BA9E7580A0020A2
:105950002DE9F0479A461A4B089FD3F8A4510E46FA
:10596000904604464FF6FF790DB92C4625E0288A6B
:10597000A0420FD9B0420CD92D68F5E74C45FBD0B9
:105980003B68103301343B606B8AA4B2A34209D256
:10599000F2E704466B8AA342EED36968201A01EB52
:1059A00000103860B442E7D8386852464146FFF7E5
:1059B0003DFD0028E2D0099B1D602046BDE8F08730
:1059C000580A00202DE9F3414FF42053ADF8003080
:1059D00042F60103ADF804304FF6FF7398420746D4
:1059E00005D14FF6FF76304602B0BDE8F0811B4B83
:1059F000441CD3F8A481A4B2B8F1000FF1D0B8F8D8
:105A00001050B8F81230AC4238BF2C46A34221D314
:105A1000D8F80430651B03EB05153E466A460221A3
:105A200028462746FFF702FD0028DCD101AA022103
:105A30002846FFF7FBFC0028D5D14FF6FF739C42A8
:105A4000CFD0B8F812300134A4B2A34205F110054A
:105A50003E46E3D2D8F80080CEE700BF580A0020C7
:105A60002DE9F043036990F82510567A33F8217038
:105A7000937A92F80B8092F80C9006EB032685B08F
:105A8000B6B2044603A93046FFF700FD05460028DC
:105A90005ED02069EB7B807B32460121FFF726FD3B
:105AA000C0B9AB6808EB09281B881FFA88F8434582
:105AB00050D3AB7B5A0716D5039AD2F80890B9F1A8
:105AC000000F10D023690C22987B00954346314685
:105AD000C84750B1009094F82510206933460C2235
:105AE000FFF7BCF912E09B0613D4AB681A88013F9C
:105AF000A2EB08029742A8BF17461FFA87F909F1DF
:105B0000090080B2FDF764FE064678B905B0BDE82D
:105B1000F083114BD3F8B891B9F1000FE5D02069AB
:105B20006B68807B32460521C847D2E70D2303729C
:105B30006968BAB24144093016F0FEFE09F101026B
:105B400094F825102069334692B2FDF745FEDDE753
:105B50000120BFE70720BDE7580A00202DE9F04FDC
:105B6000937A92F8099009EB03291FFA89F989B011
:105B700080460F461646B9F1000F79D0137B92F894
:105B80000BA00AEB032A1FFA8AFAD14570D80369E1
:105B900090F8252033F8223003F1080B1FFA8BF020
:105BA000FDF716FE0546002864D006F10D030393A9
:105BB00006F10F030493073F072205EB0B0300F1E7
:105BC00009040272BFB24846059307AB019306ABC6
:105BD00000930222039B5146FFF7BAFE8346D0B9D9
:105BE00005F109039C4247D1284612F015FD0A260B
:105BF0004046FFF78FF998F82510002E3ED105F1A9
:105C00000802A21AD8F810002B4692B2FDF7E4FD64
:105C100009B0BDE8F08F0699CA7BD30720D54FB1F4
:105C20008A681288BA421BD1496804983A4616F02D
:105C300075FEA8B9727BCAB9B27B282A584601D131
:105C4000FFF7C0FE059B221D9A42C9D84FEA1B23CD
:105C50006370030A84F800B0A070E37083461446B2
:105C6000D345BDD20BF1010080B2AEE75846E9E75B
:105C70000126BDE71126BBE70026B9E7D8F81000DA
:105C800000964B460622FFF7E9F8C1E72DE9F04FF1
:105C90000539547A0546907A5FFA81FA04EB0024BC
:105CA000BAF1020F89B0A4B203D0BAF1100F40F0DC
:105CB0000481002C00F00381137B92F80B9009EB18
:105CC00003291FFA89F94C4500F2F9802B6995F8F0
:105CD000251033F8216002F10D03029307AB019305
:105CE00006AB00932046029B52464946FFF730FE22
:105CF0000446002800F0E5802869069B807BDB7B5A
:105D000022460121FFF7F2FB034670B9069A917B08
:105D10004F0711D50798876877B12969887B00926A
:105D200021460822B847034640B1009395F8251054
:105D300028692346082277E0880652D463490298EE
:105D4000022216F0EBFD002857D006F1080B1FFACF
:105D50008BF0FDF73DFD0746002800F0B4800923D5
:105D60000372069B9A68B2F800808472043E46452E
:105D700028BF46465FFA86F808F102024272049292
:105D8000220AC27200F10C0659683046424616F0EB
:105D9000D3FD049B601C1E4407EB0B0380B20593EC
