:1000000000000120A12102008921020089210200B3
:1000100089210200892102008921020000000000DC
:100020000000000000000000000000008921020024
:1000300089210200000000008921020089210200BC
:1000400089210200852E0200351E0200BD19020022
:10005000E9180200892102006116020089210200CC
:100060009D2E0200812D02008921020089210200BB
:1000700089210200892102008921020051390200F0
:1000800089210200752A02008921020089210200CB
:1000900089210200892102008921020089210200B0
:1000A00089210200892102008921020089210200A0
:1000B00089210200892102000000000000000000E8
:1000C0008921020089210200892102008921020080
:1000D00089210200E51702008921020000000000CA
:1000E0000000000000000000000000000000000010
:1000F0000000000000000000000000000000000000
:1001000000000000000000000000000000000000EF
:1001100000000000000000000000000000000000DF
:1004000010B50F4A0F49032003F08AFA03F07EF873
:10041000002002F01BFA0C4B0C49187902F0ACF9E1
:100420000B4B187802F006FA0A4B187802F008FA1B
:10043000BDE81040084B04220321022001F072BDE8
:100440006907000064520200340400207852020060
:1004500010000020110000207C52020010B50A4656
:1004600078B1022907D1264C23782BB9A02102F0BC
:100470008BF90123237010BD012102F095F90023AF
:10048000F8E74A1F052AF6D801A353F822F000BF67
:10049000A904000077040000B3040000CD040000AC
:1004A000E7040000F9040000BDE81040202003F03C
:1004B00033B8144B1878040754BF40F0080000F01C
:1004C000F7001870BDE8104002F0B4B90E4B187870
:1004D000010754BF40F0080000F0F7001870BDE8B5
:1004E000104002F0ADB9084B1878820754BF40F0B5
:1004F000020000F0FD00F1E7014B01225A70BAE75B
:1005000010040020100000201100002038B583786E
:10051000282B044617D0A02B11D0142B18D10D4D29
:100520006B78ABB10078012103F070FA80B1002341
:1005300020786B700121BDE8384002F035B9BDE884
:10054000384002F053B902F029F9024B00221A7028
:1005500038BD00BF1004002002F040BC02F030BBE8
:1005600010B5104A1049042003F0DAF902F0FEFF3A
:100570000E49002003F000F8002002F067F902F0B5
:100580001DFB03220221012002F064FC0F2002F077
:1005900019FCBDE81040064B04220321022001F0A3
:1005A000C1BC00BF6907000080520200712C00002E
:1005B0009852020010B5044640F0020002F0DCFC44
:1005C000204602F0DFFC2046BDE8104001F0BEBF2F
:1005D00010B50D4A0D49032003F0A2F902F0D2FF35
:1005E000002002F033F90A4B0A49187902F066FC40
:1005F0000020FFF7DFFFBDE81040074B0422032176
:10060000022001F08FBC00BF690700009C5202006D
:1006100034040020B0520200B4520200023910B576
:10062000082910D8DFE801F0050F0F0F0F151A1C6D
:100630002A0040B1144C237833B90222A02102F0E1
:1006400045FC0123237010BD012102F04FFC002363
:10065000F8E70120BDE81040FFF7ACBF0020F9E744
:100660000A4B1A78002A0CBF012200221A70BDE83A
:1006700010400CBF0320002001F066BC0028E2D12E
:10068000014B01225A70DEE71304002012040020FF
:1006900038B58378282B044617D0A02B11D0142B03
:1006A00018D10D4D6B78ABB10078012103F0AEF994
:1006B00080B1002320786B700121BDE8384002F042
:1006C00015BCBDE8384002F033BC02F009FC024B17
:1006D00000221A7038BD00BF13040020014B1B68B4
:1006E0009B6818473404002070B5054606F034FFB7
:1006F000064620F02BFC044650B12946324624F031
:10070000D7FC044B21461879BDE8704020F033BC7B
:1007100070BD00BF3404002010B5044600F084FB17
:1007200028B1042C16D1BDE8104000F077BB032C93
:1007300005D0042C0BD0022C0CD1022003E00120A8
:1007400001F0A8F90120BDE8104001F0C9BB01F09B
:10075000A7F9F2E7034B1B682146DB68BDE81040B0
:10076000184700BF3404002038B5838804466BB1B5
:10077000007800F065FB054640B1207800F0EEFA05
:1007800020B1E288217A284601F011FE0A2020F0EB
:10079000DDFB014658B12368036063684360238929
:1007A0000381034B1879BDE8384020F0E4BB38BD25
:1007B0003404002030B50D4685B0002900F0878054
:1007C0008978444820F08CFEAB789A1E162A1BD8F4
:1007D000284600F065FCAB783C2B2DD81F2B2FD979
:1007E000203B1C2B2CD8DFE803F02D19702B2B2B72
:1007F0002B5B5D2B5F616365672B2B2B2B2B2B2BCF
:100800002B2B2B2B2B2B6B00203B592BE3D8284673
:1008100000F0E2FD284601F039F8DCE703242E4B16
:100820001B6828469B689847002C50D0204605B08E
:10083000BDE8304001F0A2BE4D2B19D06F2B2BD05C
:100840000024ECE703F0D0FD244A1F231E210020E2
:1008500001F064FA214B1E220921002001F09AFACE
:100860001F4820F03DFE002001F070FA0124D6E779
:100870001A4B1E220921002001F08CFA00214EF6AD
:100880006023CDE901312023009301220F23084684
:1008900005F0EAFF1A24C2E7124820F021FECFE754
:1008A0000824BCE70924BAE70A24B8E70B24B6E712
:1008B0000C24B4E70D24B2E7284600F089FABFE71C
:1008C000E978094820F00CFEBAE70424A7E705B050
:1008D00030BD00BFB852020034040020585302005B
:1008E000C8520200DF520200EC52020010B51D4C4B
:1008F000204606F0C1FD2146032006F001FB1A4800
:1009000002F070FF194802F087FF194801F0DEFE7F
:100910001849194802F018FE02F008FE02F020FE05
:10092000164A0021022001F0C5FA0122144B11469B
:10093000022001F0F7FA134A0C21032001F0BAFA61
:1009400000221146104601F0B5FA0022114601209E
:1009500001F0B0FA0C4B1B685B689847BDE810408B
:1009600006F05ABDE9060000DD0600004D0F00004C
:1009700019070000D5280000B52800001504002044
:100980004E530200765302003404002010B5014695
:100990000F4C042815D8DFE800F0030C0E101200ED
:1009A0000C4B236023688BB11B687BB1BDE8104002
:1009B0001847094BF5E7094BF3E7094BF1E7094BFA
:1009C000EFE7094820F08CFD0023EAE710BD00BFE7
:1009D00034040020000000204400002024000020F7
:1009E00034000020140000200F53020010B504460C
:1009F0000F4820F075FD0F4B0F4A1C710F4B1A600A
:100A00000F4B104A1A60104B104A1A60104B114AD3
:100A10001A60114B114A1A60114B124A1A6000F009
:100A2000C3FC00F047FBBDE810400020FFF7AEBF5D
:100A3000315302003404002087530200F8040020E0
:100A4000EC04002042530200F00400205053020046
:100A5000F404002082530200FC040020A053020092
:100A6000CC02002088530200014B024A1A607047F2
:100A7000C8020020B05302008378282B02BF024B2B
:100A800000221A7002F098BC3C04002010B5124AF3
:100A90001249042002F044FF02F07AFD10490020C0
:100AA00002F07CFD002001F0D1FE0E4B0E491879BA
:100AB00002F092FB03220221012002F061FC0022DD
:100AC0001146022002F040FCBDE81040074B042212
:100AD0000321022001F026BA69070000B853020082
:100AE0002932000034040020D0530200D453020005
:100AF00010B50A4686B00446C0B107290CD00829B3
:100B000016D0022912D10E4C2378ABB9A02102F0E5
:100B100041FC0123237009E0684601F01DFD10230C
:100B2000694620468DF8003002F076FA06B010BD16
:100B3000012002F051FAF9E702F038FC0023E9E75E
:100B40003C0400207047000010B50A4A0A49022000
:100B500002F0E6FE02F028FD002001F077FE0320FF
:100B600002F0CEFCBDE81040044B04220321022019
:100B700001F0D8B969070000DC530200D853020025
:100B800020B1022902D1012102F07EBC7047000091
:100B900030B5334D334C89B0284622F035F9204624
:100BA0001BF092FD0B2304F10C012B220220237178
:100BB00021F0CFFB042204F13001012021F0C9FB18
:100BC00020F0B8F94FF4006120F010F920F0A2F9FC
:100BD0002549E38B40F20D120A811433627B8A723D
:100BE0008B81227FE37E13448B7304201FF0FEFF72
:100BF00080B220F08FF920F02FFA20F063FB1B4821
:100C000020F0B0FC012020F0A7FC01F067FA40F2D0
:100C10000443ADF8103004238DF812300395059489
:100C200020F088F9069020F08BF9079003A80BF0CC
:100C300026FF20F06FF9062201A9002021F089FB90
:100C400001A81BF043FE01A81CF0FEFD00F010F807
:100C5000FFF74CFE20F05EFA002009B030BD00BF67
:100C6000400400204C04002054000020450E0200E7
:100C700010B509F0D9FD09F043FC09F021FD09F098
:100C800071FD234820F0D2F906F0E6FF214820F05C
:100C9000CDF90446002006F0D1FB06F00DF905F071
:100CA000EBFB06F00FFB06F021FF06F069FF06F0F4
:100CB00099FD05F001FE204606F010FC164820F0D4
:100CC000B5F907F07FF907F06FF807F021F913483D
:100CD00020F0ACF902F048FD03F042FB03F068F9A4
:100CE0000F4820F0A3F908F0B1F809F0B3FB09F0C0
:100CF000A7FB64201FF00AF80A4820F097F900F0DB
:100D000035F8094820F092F9BDE81040FFF76EBEB3
:100D10006D7C0000F5740000D57F0000AD37000049
:100D2000B18E0000790D0000B5070000F8B50A4E3D
:100D3000074603250024307928B106F029FAB84285
:100D400004BF0134E4B2013D15F0FF0506F12006B1
:100D5000F1D12046F8BD00BF88040020024B03EB10
:100D6000401313F81B0C704788040020014B1870C7
:100D700001F0D2B9E804002010B50C46F1B1897831
:100D8000114820F0ADFBA3781F2B05D90F4B5B68F2
:100D90002046BDE8104018470F2B02D90B4B1B68AB
:100DA000F6E713B1012B04D010BDBDE8104001F0EF
:100DB00083BC2046BDE8104001F07CBCC306F3D5DF
:100DC000BDE8104001F080BCE85302008004002020
:100DD00013B543790446D3B104210DEB010009F0AA
:100DE00035FD01990C4AB1FBF2F302FB1313207895
:100DF0000193ADF800306A461B0C03218DF80230D8
:100E000006F05AFE019801F041FC02B010BD0E2020
:100E100001F0B4FBF9E700BF40420F000146132286
:100E2000032006F07DB80000044B187920B993F830
:100E3000240008B993F84400704700BF88040020DC
:100E4000024B03EB401353F8200C7047880400203A
:100E5000104B03EB411373B553F8204C05461FF0BC
:100E600055FAA0B120460022042101F029FA0446D7
:100E700068B1867D06F050FE2A8801920122034661
:100E8000009204F110012246304606F0DDFC02B06B
:100E900070BD00BF8804002008B5094820F020FB81
:100EA00001F0C4F91FF032FA48B106F035FB10B179
:100EB000002006F00BFDBDE8084006F0F5BC08BDBB
:100EC000F753020038B50446C8B101F0A9FAB0B131
:100ED000204601F0ABFA054688B9024604212046B7
:100EE00001F0EEF958B100F110010122807D06F009
:100EF00003FD29462046BDE8384001F094BA38BDCC
:100F000038B50C461546FFF79BFF28B12A46214607
:100F1000BDE8384001F056BA38BD38B50446FFF791
:100F20008FFF054688B10821002201F0C9F901466A
:100F300058B1204604F054FA284601F06BFA0146F5
:100F40002046BDE8384004F055BA38BD8378272BD9
:100F5000F7B504782FD12046FFF772FF054600B39E
:100F600001AA0DF1030101F027FA019A9DF803107F
:100F7000204602F033FE284601F017FA01462046CB
:100F800002F0DEFC9DF80330032B05D14FF6FF7213
:100F90000121204601F062FC2046FFF7BEFF03B0AE
:100FA000F0BD0146204602F0CBFC2A460121204636
:100FB00002F014FEF0E72A2B2DD10379DB07EBD5E5
:100FC0002046FFF7CBFE05460028E5D12046FFF777
:100FD00037FF06460028DFD002F030FD0746E9B2B1
:100FE0008F420DD801A90122204602F035FE20468D
:100FF00002F040FE01AA0146304601F0E3F9CBE7DA
:10100000204602F0F9FC024618B1A9B2304601F0C0
:10101000CEF90135E3E7282BC1D1204602F0D6FCFA
:101020002046FFF70DFF05460028B8D0204604F003
:10103000E9F90146284601F0F0F9B0E710B5044699
:1010400001F0D6F9014620B16068102224F022F8A0
:10105000A8B1606801F0D0F90321002001F0BAF9CD
:101060000321002002F098FD054820F039FABDE880
:1010700010404FF6FF720121002001F0EFBB10BDC0
:101080000B54020008B54389122B08D10078FFF7F2
:10109000D7FE20B1BDE80840002101F09BB908BD92
:1010A0008378122B03D0152B03D1FFF7C7BFFFF7AF
:1010B000E9BF7047014802F0A1BD00BF010F000069
:1010C00010B4094B094C411E03EB411224781477EC
:1010D000102494759082064A126803EB4110204454
:1010E000116810BC20F006B988040020E804002034
:1010F000FC0400202DE9F04F01EB80031E4C03F1AE
:10110000080254F8239034F81250103300F11402FE
:1011100034F81330ED1AABB234F812500F469D423A
:101120004FF0010185B083464FEA800A28BF1D4673
:1011300007EA010215B905B0BDE8F08F0AEB070810
:1011400008F11008FB2D34F81830039296BF2E4694
:10115000FB2602314B4498BFC9B200935846F3B204
:1011600004F0A4FB34F81830039A3344AD1B24F880
:101170001830ADB20021DDE7000500202DE9F04177
:101180004D00EDB205EB80031D4C03F11002083356
:1011900034F8122034F813306E1C9A425FFA86F845
:1011A00007464FEA800602D22946FFF7A3FF06EB67
:1011B000080303F11002083334F8122034F8133016
:1011C0009A4203D241463846FFF794FF354405F171
:1011D0001003083534F8132034F815309A420DD333
:1011E000464406F11003083634F8132034F816305C
:1011F0009A4222BFE419012384F82B30BDE8F08124
:10120000000500201FB5022343730446007905F052
:10121000AFFF002808BF0123207918BF002311D198
:10122000A27A7AB1237B01332373084B1B685A6877
:101230009B68029301A9064B0192039305F0AEFE51
:1012400004B010BDA372FFF73BFFF9E7FC040020D8
:101250000000FFFF8378102B0BD10088431E054848
:1012600000EB4310437B022B01D1FFF7CBBF0123DF
:10127000437370478804002013B50446006898B192
:101280000DF10702012101F01BF8034660B16279FC
:10129000B2FA82F25209A2719DF807200121207949
:1012A00006F0A6FC02B010BD0023A3711A46194631
:1012B000F5E7000030B5114A92F82F305B00DBB241
:1012C0005D1C03EB80031033EDB232F81340810054
:1012D0001CB1002422F8134001244B19103332F8BA
:1012E000131039B1002122F813100244002382F8B0
:1012F0002B3001E0002CF8D130BD00BF00050020EC
:10130000034B1B681B6813B110301FF0FFBF704701
:10131000FC0400202DE9F84300234B71CB8000F141
:101320000A080D4604464146407A00F08BFF2860CB
:1013300000BB94F80990B9F1010F1BD1E37B03F0D6
:10134000C003402B16D1134D95F83C7097B900F0AF
:101350003FFF064670B104213A4600F0B1FF014656
:1013600040B12288404606F04FFAAE6385F83C90C3
:1013700085F83770084D2B681B794BB100F044FF9E
:1013800030B12B6820781978BDE8F84306F01FBC0F
:10139000BDE8F88300050020F4040020086808B1C7
:1013A00000F0FABE70470000074B0849D9620022DE
:1013B000C3E9102283F836201A639A8683F83C200A
:1013C000034B044A1A60704700050020030000FF29
:1013D00080040020551200002DE9F0438378222B71
:1013E00085B004462FD0482B2DD000886E4A461E6B
:1013F000292B4FEA4618154602EB46160BD81F2B31
:101400000FD9203B092B0CD8DFE803F0180B1D0B7C
:101410000B0B0B244A63402B00F0A58004D8372B1C
:101420006DD005B0BDE8F083572BFAD1737B012B4B
:1014300040F0B7803046FFF7E5FEF2E75B4B002255
:10144000C3E91022EDE7594B1B6C002BE9D0204675
:101450009847E6E705EB0803C0B21871544B1B68C8
:101460001A68A2B1228A998891420AD8D9889142F1
:1014700007D3618A1A89914203D1A28A5B899A4271
:1014800005D045440023AB722B73FFF719FE474B81
:101490005B6C0BB120469847207805F059FDC0E7FA
:1014A00005EB080755F80800FFF70CFD3046FFF77D
:1014B00027FF3E4B797A00223A717A7383F83C20F9
:1014C00029B17A7283F82F201A6283F82B205B6C83
:1014D000BBE7374B1B681A68002AA2D0E2781AB91A
:1014E0003046FFF70DFF9CE70C2A9AD045441B7B42
:1014F0002A7B9A4295D22879FFF7E2FD91E72B4F9C
:1015000097F83C30002B8CD094F80390B9F1000F81
:101510000ED1BB6B48F8023097F8373023B1304614
:10152000FFF7AAFE87F83790002387F83C3078E76A
:10153000B9F1050FF8D1B86B0028F5D000F048FEDE
:10154000B8630028F0D00022042100F0B9FE06465E
:101550000028E9D04544287905F0A8FD22883146C5
:1015600006F052F95DE7134B1B681B788BB9E288D4
:10157000ADF804202289ADF806206289ADF8082074
:101580003079A289ADF80A2001A9039305F02EFD58
:1015900047E7012B7FF445AF3079112105F042FD7B
:1015A0003FE7022373733CE7880400200005002016
:1015B000FC04002064000020F0B5194CBDF814E0D4
:1015C000BDF818C001EB8006054644F8263006F148
:1015D000080324F8132006F10C03103624F813E056
:1015E00000F1140324F813C0002324F81630231844
:1015F00093F82C30032B23460CD094F82F40B4EBF7
:10160000510F07D1FB2A05D8624503D8BDE8F04049
:10161000FFF770BD1D44002385F82B30F0BD00BFDF
:10162000000500202DE9F74F314DDDF830A00E46C2
:1016300095F82D10144699460A1F9DF834300193F1
:101640000746D2B2B04600EB060B33465B4512D1DB
:1016500004EB470306F1FF3800934FF0300B009B7B
:101660009C4219D153464A463146384603B0BDE83C
:10167000F04F04F03BB913F8010B0028E6D109B193
:10168000012AE3D80120FFF751FB1A4B1B681B7896
:101690008342DDD8032225E0019B93B1228898F88C
:1016A0000100114604F05EF998F80100062329189C
:1016B00013FB00B391F8362091F82D102B4404F061
:1016C000D5F818F8010F2B1893F82B301BB995F8A3
:1016D0002F10FFF753FD0234C1E718F8013B2B44EC
:1016E00083F82C20D845F8D103B0BDE8F08F00BFB7
:1016F00000050020F80400202DE9F04799469DF8E8
:101700002830204CDDF820A094F82F50022B0746FB
:101710000E46904605D100F077FD98B9012384F874
:101720002A3084F82F3094F82F40AC420CD101239A
:10173000CDE908A342464B4631463846BDE8F0475E
:10174000FFF770BF0023EAE76400E4B2621C0D49B2
:10175000D2B2334607EB060E00207345E7D013F8EC
:10176000015B04EB850C0CF1100C21F81C0002EB62
:10177000850C0CF1100C0D4421F81C0085F82B0091
:10178000EBE700BF000500202DE9FF4105460F46AD
:101790001D4C0A9907EB8506184606F1080354F814
:1017A000268034F81330ADF80E309446B8F1000FAF
:1017B00003D1002004B0BDE8F0810C36092A34F8CA
:1017C000166016D1009643460DF10E0204F026F97C
:1017D0000028EED005F11403284634F81330BDF884
:1017E0000E20CDE9006339464346FFF7E5FE0120B0
:1017F000E0E70A46CDE9008601460DF10E0360469A
:1018000004F0C4F8E4E700BF000500201FB501297B
:101810008DF80F00ADF80C20ADF80A3027D0042960
:1018200025D0194CC0B2231893F82D208A421ED01F
:1018300083F82D1094F82F30FF2B18D0FFF73AFDC6
:101840009DF80F30234493F82C20032A11D1002255
:1018500083F82C209DF81C30019306AB009303AA5B
:101860000DF10A030DF10F010120FFF7DBFE04B0BB
:1018700010BD012003220DF10F0183F82E0083F823
:101880002C2004F051F8F2E7000500202DE9F34187
:10189000048805461CB17B4B013C03EB4414AB7838
:1018A000273B182B4BD8DFE813F0190020004A0023
:1018B00027004A0042004A004A004D00A5005D0092
:1018C0004A004A004A004A004A004A004A004A00C8
:1018D000D400E5004A004A004A00C90021462846D3
:1018E00002B0BDE8F041FFF715BD2146284602B021
:1018F000BDE8F041FFF752BDE37903B3206801234F
:10190000637110B1E17A00F041FC5F4B002283F873
:101910002A2093F82F30012B08BF6372236873B11C
:101920002179284602B0BDE8F041FFF791BAA379CA
:101930002BB12B791BB1012363710023A37102B07A
:10194000BDE8F081E379002BF9D020680028F6D0BB
:10195000E37AAA7F29461343E37202B0BDE8F0415F
:1019600000F0D1BC484B93F82A3013B3474E2A7984
:1019700033681B78134003F00103E37153BB00236A
:10198000E372336820795F7893F8028005F084FB76
:1019900001282079EC793168AB790A78C97808BFD9
:1019A00047F0020708EA040400943B4006F0F0F810
:1019B000C5E72B79DB07D9D5637923B1207905F009
:1019C000A5FB0028D2D12079052102B0BDE8F04165
:1019D00006F062B82368002BD1D1207905F05CFBBA
:1019E0000746207905F062FB0146384600F096FB79
:1019F0002060C4E7236893B9EE8906352EB92449DF
:101A00000822284623F046FB78B12946304600F0EC
:101A100039FC206018B11C4B002283F83C20204682
:101A200002B0BDE8F041FFF727BC174B93F83C200C
:101A3000002AF4D0012283F8372080E7EB78002BCE
:101A40007FF47DAF05F068FD02B0BDE8F04101F024
:101A500081BDEB78002B7FF472AF002C3FF46FAFA9
:101A6000206800283FF46BAF012102B0BDE8F041CF
:101A700000F0D9BCE97800297FF461AF2068002824
:101A8000F3D15CE78804002000050020F404002066
:101A9000DC7C0200014B83F82A007047000500201F
:101AA00008B5FFF7F9F9024B012283F82A2008BD97
:101AB000000500202DE9F047214C0546014621484C
:101AC0001FF00EFD2F1D04EB450234F817309688E9
:101AD000B3424FEA450804D32C440123A372BDE866
:101AE000F087F61A05F11402174B54F8259033F8D5
:101AF0001230B6B29E4228BF1E4601213EB9A04414
:101B000034F81720B8F804309A42E8D3E4E7FC2E02
:101B100034F8173097BFB2464FF0FC0A0231C9B211
:101B20004B445FFA8AF2284604F044FC34F817303C
:101B3000A6EB0A06534424F81730B6B20021DDE7BD
:101B400048050020215402000005002008B504F0DB
:101B5000BFFC0B4B0B4A50B1186C40B9C3E91020C5
:101B6000094B1B68597904F057FC012006E01B6CF7
:101B70009342FAD005481FF0B3FC002008BD00BF17
:101B800000050020911B0000F004002041540200D9
:101B90001FB58378482B1DD141791C4A531893F8FF
:101BA0002E4094B1002283F82E2083F82C20184B6D
:101BB0008DF80F101B6801201A1D009201909A1CCD
:101BC0000DF10F01FFF72EFD04E0C07820B90322CC
:101BD00083F82C2004B010BD93F82C00032810D0FB
:101BE00093F82B0068B983F82C00094B8DF80F107F
:101BF0001B6801901A1D00920DF10F019A1C012023
:101C0000E0E70A44032382F82C30E3E700050020D4
:101C1000F0040020F8B50C4D2E180446F77A0A4659
:101C200037B904F009FC204604F0ACFB0123F37241
:101C30002B199B7A13B92046FFF73CFF2046BDE8DD
:101C4000F84004F0D1BB00BF480500202DE9F04169
:101C5000164C0546164890460E461F461FF040FC9F
:101C600004EB450344F825809E80DF801EF058FB7E
:101C7000104B05F1140223F812002B1D002224F84A
:101C8000132063191A7B032A0BD0DB7A012B08D1AE
:101C9000FC2E06D8B04204D32846BDE8F041FFF739
:101CA00009BF601900238372BDE8F0814805002058
:101CB0007854020000050020F0B50446164D55F892
:101CC000246005EB440585B00F461946AB88ADF896
:101CD0000E30104616B9002005B0F0BD092FED8872
:101CE00010D1009533460DF10E0203F097FE002847
:101CF000F1D02046BDF80E102B463246FFF7A6FF66
:101D00000120E9E70A46CDE9006501460DF10E0321
:101D1000384603F03BFEEAE7480500202DE9F04194
:101D2000044609480D4616461F461FF0D9FBFFF72B
:101D30000DFF38B13B46324629462046BDE8F0410A
:101D4000FFF784BFBDE8F0818954020010B5044656
:101D5000FFF7FCFEB0B10C481FF0C2FB0B490B199A
:101D60000022987A1A7318B1201D9A7221F8102057
:101D7000074B1B6803EB44032046D988BDE810409D
:101D8000FFF748BF10BD00BF9A540200480500206D
:101D9000F00400202DE9F04104460D4616461F468A
:101DA000FFF7D4FE38B13B46324629462046BDE80F
:101DB000F041FFF781BFBDE8F081000008B5084B96
:101DC000084A196C21B91A64074A5A64012005E0CF
:101DD0009142FBD005481FF083FB002008BD00BFE7
:101DE000000500207D1E0000411E0000C2540200BC
:101DF0001FB5114B114A1B6892F82C1003EB4100E0
:101E0000C088ADF80E0098B100228DF80C208DF836
:101E10000D2001200DF10D02009203EB4103019012
:101E20000DF10E0203A9FFF7FDFB05B05DF804FB01
:101E3000032382F82C30F8E7EC0400200005002092
:101E400082780D4B282A06D193F83D2072B10022EA
:101E500083F83D207047272A08D193F83D20002AB7
:101E6000F5D1002283F82C20FFF7C2BF93F82C2075
:101E7000032AF6D0704700BF000500208378482B66
:101E800001D1037993B10A4A92F82E3033B100237D
:101E900082F82E3082F82C30FFF7AABF92F82C304F
:101EA0000133DBB2022B82F82C30F5D9704700BF2A
:101EB0000005002073B504460D461646FFF77EFF69
:101EC00058B11F231F2DCDE900332A46334628BFC2
:101ED0001F2221460020FFF76FFB02B070BD0000FB
:101EE00010B586B00446FFF769FFA0B10B4A002386
:101EF00082F82C308DF816308DF81730084B1B689F
:101F000002940DF117020120009201909A1D0DF12B
:101F10001601FFF7F1FB06B010BD00BF0005002061
:101F2000EC040020F7B504460D4616461F46FFF7A1
:101F300045FF30B1009733462A4621460020FFF77F
:101F400023FC03B0F0BD000013B50446FFF736FFD5
:101F500080B1094B93F82C20084B1B6803EB42011E
:101F6000002033F81230CA880121CDE90001214652
:101F7000FFF74CFC02B010BD00050020EC0400206F
:101F8000012873B504460E4623D9032823D1886857
:101F900023F07CF80546706823F078F8C0B2431E41
:101FA000022B06D90D4821461EF0F0FD012002B09B
:101FB00070BD0B4AB5FBF2F302FB1353ADF80430CE
:101FC00001AA1B0C21468DF8063005F075FD002096
:101FD000EDE70220EBE70320E9E700BFFB54020036
:101FE00040420F00022870B50E465AD903285AD134
:101FF0004D682F49284623F08BF8C0B12D4928465B
:1020000023F086F8002850D10224B6682A493046C9
:1020100023F07EF868B9294829461EF0B7FD012C47
:1020200018BF0624204600F057FB002070BD012495
:10203000EBE72349304623F06BF840B921482946A5
:102040001EF0A4FD012C0CBF02240724EAE71E4960
:10205000304623F05DF840B91C4829461EF096FD35
:10206000012C0CBF03240824DCE71949304623F077
:102070004FF840B9174829461EF088FD012C0CBFC7
:1020800004240924CEE71449304623F041F860B90E
:102090000E4829461EF07AFD012C0CBF05240A24A7
:1020A000C0E70220C2E70320C0E70120BEE700BF6F
:1020B0002255020024550200C66C02005E55020043
:1020C000F2650200265502000E6E02003E55020027
:1020D0005755020059550200E161020008B5094850
:1020E0001EF0AAFE08481EF0D5FB08481EF09EFF11
:1020F0001EF0E6FB06481EF0D3FBBDE8084005488D
:102100001EF0CEBB090B0200450E0200B909020009
:1021100068000020780000207047000070B5194B5F
:1021200093F82F2006460D46DAB193F8F320D2B18A
:1021300093F8B721D2B903F5C474C4220021204614
:1021400022F0DEFF012384F82F302046A6712946B5
:102150001EF034FA002384F8313084F832302046FF
:1021600070BD1C46E9E703F1C404E6E706490C68C4
:1021700003F5137004F1C402824208BF1A460A60D4
:10218000DBE700BF5805002088000020012380F80D
:10219000303080F82E10704790F830300BB980F84E
:1021A0002F307047094A0146032092F82F3023B19F
:1021B00092F830300BB1914206D0431E13F0FF006D
:1021C00002F1C402F1D17047012070475805002088
:1021D00010B5044648B1FFF7E5FF28B104F1C4008B
:1021E000074B984203D3002010BD0648F8E790F84B
:1021F0002F201AB190F83020002AF5D1C430F0E732
:10220000A407002058050020074B93F82F2042B95F
:1022100093F8F3202AB993F8B701003818BF0120CA
:1022200070470120704700BF58050020044B002272
:1022300083F82F2083F8F32083F8B721704700BF7D
:1022400058050020F8B50E4605F078F90C4C074605
:10225000032594F82F3043B9013D15F0FF0504F133
:10226000C404F6D12C462046F8BDA379BB42F3D175
:10227000314620461EF0A7F90028EDD0F3E700BF55
:1022800058050020F8B50D4C06460F46032594F876
:102290002F3053B1B4F84C30B34206D1082239463E
:1022A00004F1440022F0F6FE30B1013D15F0FF05C7
:1022B00004F1C404EBD12C462046F8BD580500209B
:1022C00010B590F82E30044611EA03000DD0013904
:1022D000072916D8DFE801F0040A151015151512A4
:1022E00094F84E30137004F1340010BD94F86A3045
:1022F000137004F15000F8E7E01DF6E704F11E004A
:10230000F3E70020F1E730B48B7F013B072B17D8B0
:10231000DFE803F0041816291616163DCB7F80F867
:102320004E3000F134020B1D01F11C05186859688C
:10233000144603C40833AB422246F7D11B881380EE
:1023400030BC7047CB7F80F86A3000F150020B1D23
:1023500001F11C0518685968144603C40833AB42E0
:102360002246F7D1EAE70B1DC21D01F1180453F80C
:10237000045B42F8045BA342F9D11C8814809B786B
:1023800093708B7E837130BC14311EF017B90B1D16
:1023900000F11E02143153F8044B42F8044B8B42F7
:1023A000F9D10023C0F88030CAE76C30704700EBE9
:1023B0004100A0F86C20704790F884300B70853095
:1023C000106070472AB120B180F88410137880F82B
:1023D0008530704738B9054B83F8841083F848116D
:1023E00083F80C12704780F884107047580500205D
:1023F00000487047B907002040B1054B00F11002BA
:1024000050F8041B43F8041B9042F9D1704700BFF9
:10241000B9070020D0F880007047C0F880107047DE
:1024200090F83100704780F83110704790F8320012
:1024300070470000012810B523D11548154C0278CB
:1024400002EB82030132D2B2032A04EB430308BF3A
:10245000002202705A884A811A880A819A888A81E1
:10246000DA88CA810C4A1B890B8213680B60536897
:102470004B6093790233DBB23B2B88BF002393710F
:1024800010BD0648064C027802EB8203DAE700BF73
:10249000CD070020C25502008C000020CC07002090
:1024A000A455020010B50F4A0F4912780B780F4C53
:1024B000012A0CBF0E4A0F4A32F81320028122680B
:1024C00002606268426062790132D2B20133DBB2EB
:1024D0003B2A88BF0022032B08BF00230B706271C8
:1024E00010BD00BF94000020D00700208C00002009
:1024F0002E560200285602000F480B4600780F495E
:102500000A78B8B90E4850F8220098600132D2B269
:10251000062A08BF00220A7002225A73094A51682B
:10252000106803C393790233DBB23B2B88BF0023CF
:10253000937170470448E6E7CF070020CE070020DC
:10254000F85502008C00002010560200014B187054
:10255000704700BFCF07002030B5074C034604F199
:102560001805224603CAAA4218605960144603F1AE
:102570000803F6D130BD00BFE0550200431E10B580
:1025800004461C2B13D8DFE803F00F121B1D1F217C
:10259000232527292B2D2F31121212333537393BA2
:1025A0003D3F4143454749001E481EF099FF1E4BE1
:1025B0005B68002B34D020460021BDE8104018474E
:1025C0001A48F2E71A48F0E71A48EEE71A48ECE72B
:1025D0001A48EAE71A48E8E71A48E6E71A48E4E73B
:1025E0001A48E2E71A48E0E71A48DEE71A48DCE74B
:1025F0001A48DAE71A48D8E71A48D6E71A48D4E75B
:102600001A48D2E71A48D0E71A48CEE71A48CCE76A
:102610001A48CAE71A48C8E71A48C6E71A48C4E77A
:1026200010BD00BF34560200D40700204B560200F4
:1026300067560200835602009C560200B5560200FF
:10264000DA560200F45602000E5702003557020017
:102650004C5702006957020083570200A857020036
:10266000CB570200DD570200F0570200115802005C
:10267000325802005058020072580200945802006A
:10268000BD580200E65802001459020010B5014678
:10269000044606481EF024FF054B5B6823B1214623
:1026A0000F20BDE81040184710BD00BF3B59020085
:1026B000D407002070470000024B9B6803B1184705
:1026C000704700BFD407002070470000014B18601E
:1026D000704700BFD4070020024B1B6803B11847A6
:1026E000704700BFD407002030B5224B93F822106A
:1026F00001701A8B42701A8B120A82705A8BC27048
:102700005A8B120A02719A8B42719A8B120A827149
:102710008A071DD4C21D4D0707D51446DD8B04F86A
:10272000025BDD8B2D0A557022460C0744BF93F8DF
:10273000234002F8014BC90607D511461C8C01F84D
:10274000024B1B8C1B0A53700A46101AC0B230BDD4
:102750001A8AC2711A8A120A02729A7C4272DA7C4E
:1027600082721A7DC2725A7D02739C7D447300F19D
:102770000E02D0E7E0070020024B18730A685A6285
:10278000704700BFE0070020034B988099711846FE
:10279000596ADA711EF0AEBDE007002001481EF054
:1027A000B5BD00BFE007002030B5044687B00D4638
:1027B000FFF7F4FF2946204601F028F990B10A4DB1
:1027C000002005F11001FFF735FE95F8283085F857
:1027D000223001A8FFF788FF01AB82B2E221204638
:1027E00001F006FC07B030BDE007002030B505461B
:1027F000C178007887B001F009F9B0B10C4C012024
:1028000004F11001FFF716FE94F8293084F8223005
:1028100001A8FFF769FFE52182B201AB287801F03A
:10282000F4FB616A20461EF065FD07B030BD00BFB5
:10283000E0070020014B83F828007047E0070020E4
:10284000014B83F829007047E0070020024B01226A
:102850001A705870704700BF0C08002073B5144BF5
:102860001E7804461D46A6B1ADF80410ADF806204A
:1028700088B901246978204601F0C8F828B101AB75
:1028800004221221204601F0B3FB0134E4B2042CEF
:10289000F0D102B070BD597801F0B8F80028F8D036
:1028A00001AB04221221204601F0A2FBF1E700BF98
:1028B0000C080020152907B508D1012201A901F053
:1028C000CBF9049B9DF804205B681A70002003B0CC
:1028D0005DF804FB10B40C46152C1946BDF8042015
:1028E000029B02D110BC01F08FB9002010BC7047D0
:1028F000074B1B7802464BB10648013B262101FBE2
:1029000003039A4202D012B150187047002070475A
:102910000E08002096000020014B03221A70704719
:102920000E08002038B504461D461046062C2CD84B
:10293000DFE804F02D042B0B2B2B1D00FFF7D8FF35
:10294000286070B10124204638BD0B78012B20D1BE
:102950008B784C7804EB0324A4B2FFF7C9FF2860FE
:1029600008B90624EFE74388A342F6D3EAE70A4B07
:102970001A780AB92A60E6E7084B013A262101FBDA
:10298000023290422A60DDD1EBE70424DBE7032426
:10299000D9E70924D7E700BF0E08002096000020E1
:1029A000012803BF024B00221A700420704700BFA9
:1029B0000E08002073B5002305460E461446019309
:1029C0002370019A01AB31462846FFF7ABFF01287F
:1029D00004D0062808BF012002B070BD237801335F
:1029E000EEE70000034A1378022B9CBF01331370FB
:1029F000704700BF0E0800200A4A92F83A30990644
:102A00004BBF23F0200343F0200382F83A3082F8D2
:102A10003A304CBF4AF232034DF20A03A2F8483072
:102A2000704700BF9600002030B5294C216987B05F
:102A30000D7DCB8A8DF805302A064FEA13238DF8D9
:102A4000063043BF0B7E8DF8073002AA0DF1070256
:102A5000EB078DF8045007D54B7E13704B8B5370EA
:102A60004B8B1B0A93700332AB0744BF0B7F02F8FA
:102A7000013B6B0744BF4B7F02F8013B2B0708D596
:102A8000CB8B1370CB8B1B0A537091F82030937053
:102A90000332EB0608D591F8213013704B8C53703C
:102AA0004B8C1B0A937003326B0607D513468D8C33
:102AB00003F8025B898C090A51701A4601ABD21ADD
:102AC000D2B2F52101F0A1FA0023637507B030BD41
:102AD0001008002030B5234C236987B05A88197834
:102AE0008DF80520120A8DF806209A888DF80720A7
:102AF000120A8DF808209A798DF80920DA798DF874
:102B00000A201A7A8DF80B205A7A8DF80C209A7ABE
:102B10008DF80D20CA0745BF9A89ADF80E200DF13A
:102B20000E0204AA8D078DF8041007D5DD891570F3
:102B3000DD892D0A55701D7C95700332090707D574
:102B400011465D8A01F8025B5B8A1B0A53700A46D4
:102B500001ABD21AD2B2F22101F057FA0023637509
:102B600007B030BD1008002007B50623ADF80430CB
:102B70008DF806108DF8072001AB0422FA2101F030
:102B800037FA034B00225A7503B05DF804FB00BF0F
:102B90001008002007B50523ADF80430ADF8061085
:102BA00001AB0422FA2101F023FA034B00225A75EB
:102BB00003B05DF804FB00BF10080020FFF7ACBEB7
:102BC00070B58378272B054615D0282B1AD0122BE9
:102BD00017D1254C0678A37D012262752BB1002305
:102BE00003213046A375FFF7BFFF6B89FA2B0ED187
:102BF0000023237505E01C4B00221A619A829A7506
:102C00009A7670BD184B00221A619A75F9E7F22B7B
:102C100001D0F52BF5D12269002AF2D0F22B0DD18B
:102C2000217E304600F0F2FE40B121690B78DB06D0
:102C300004D53046BDE87040FFF7F6BE0B4B226965
:102C4000A07EA3F11001FFF76DFE012805D12169D7
:102C50003046BDE87040FFF73DBF012230461146C7
:102C6000BDE87040FFF780BF10080020200800205A
:102C70002DE9F347BDF828800B9EB8F1010F0546FA
:102C800040F298804D4C617E00F0C0FE18B9812062
:102C900002B0BDE8F08796F800907778A8F1020AB4
:102CA000B9F1030F1FFA8AFA07D17B1F012B11D844
:102CB000BAF1000F29D0052276E0237D002B7BD1CD
:102CC000B9F1010FF1D1E17D284600F09FFE002807
:102CD000EBD1DCE7012FEBD9BB1E022B66D8BAF192
:102CE000000FE8D0B378012B1ED0022B60D1072350
:102CF000042F08BF5B00A8F1030808BFDBB21FFA6E
:102D000088F898451FFA83FAD5D102362B48A77662
:102D10005246314622F0CCF909F1FF33032B42D859
:102D2000DFE803F0041A212D0223E1E70022244BFF
:102D300031463846FFF7F6FD0128024607D12169E2
:102D40002846FFF7C7FE012323750020A0E70121D5
:102D50002846FFF709FFF6E731463846FFF720FE21
:102D600002210246F4E7237D0BB100232361637D3A
:102D700013B101220321EBE70123A375E3E700234D
:102D80000DF10702314638468DF80730FFF712FE85
:102D90000128024605D19DF807102846FFF7FAFEE4
:102DA000D1E70421D4E702224946D1E70422FBE718
:102DB0000922F9E70D206BE7802069E71008002061
:102DC0002008002007B50221ADF8040001AAF82070
:102DD00001F09CFB03B05DF804FB000007B560B197
:102DE000082904D0092905D003B05DF804FBFFF7DA
:102DF00003FEF9E7FFF7F6FDF6E707390329F3D8F5
:102E000001A353F821F000BF192E0000EF2D0000A0
:102E1000F52D0000492E000001AA0DF10201F82055
:102E200001F0F0FB0028DFD1019A5178137803EB11
:102E3000012398B25B0546BF20F4806080B240F465
:102E40008060FFF7BFFFCFE700210120FFF7A8FD5B
:102E5000CAE700BF024BD87518765A76704700BF94
:102E60001008002010B5144B197F01709A69427048
:102E70009A69120A82705A8BC270DA7E02718C07CC
:102E800008D4421D490744BF5B7F02F8013B101A7A
:102E9000C0B210BD1A8A42711A8A120A82719A7CD3
:102EA000C271DA7C02721A7D42725A7D82729C7DF6
:102EB000C47200F10C02E5E72C080020024B1873E5
:102EC0000A681A62704700BF2C080020034B9880E4
:102ED00099711846196ADA711EF00CBA2C08002094
:102EE00001481EF013BA00BF2C08002030B504467C
:102EF00087B00D46FFF7F4FF2946204600F086FD17
:102F000090B10A4D002005F11001FFF7F5FA95F890
:102F100024302B7701A8FFF7A5FF01AB82B24FF455
:102F20009171204601F064F807B030BD2C080020F4
:102F300030B50546C178007887B000F067FDB0B1C4
:102F40000C4C012004F11001FFF7D6FA94F825305B
:102F5000237701A8FFF786FF40F2251182B201AB6B
:102F6000287801F052F8216A20461EF0C3F907B014
:102F700030BD00BF2C080020014B83F824007047AF
:102F80002C080020014B83F8250070472C080020F6
:102F9000014B03221A70704754080020012830B5F5
:102FA0000C4613D10A4D2B7833B10A4903EB430386
:102FB00001EBC3039C4204D100232B701360062055
:102FC00030BD0CB104F118011160F9E70320F7E7F7
:102FD0005408002050590200012803BF024B002270
:102FE0001A700320704700BF5408002037B5002333
:102FF00005460C4601930199237001AA2846FFF764
:10300000CDFF012804D0062808BF012003B030BD41
:1030100023780133EFE7000030B54A880B7887B09A
:10302000DD078DF805204FEA12228DF806208A88E8
:103030008DF807204FEA12228DF804308DF8082011
:1030400040D5CA888DF80920120A8DF80A200A890D
:103050008DF80B20120A8DF80C200DF10D029C0743
:1030600008D54C891470240A54708C899470240AF1
:10307000D47004325D0706D51546CC8905F8024B9D
:10308000240A54702A461C0706D50C691470250AB8
:10309000240C557094700332DB0606D58B8A1146DA
:1030A00001F8023B1B0A53700A4601ABD21AD2B296
:1030B00040F2A74100F0A9FF044B002283F8322020
:1030C00007B030BD0DF10902C9E700BF5808002064
:1030D00030B54A880B7887B08DF80520120A8DF834
:1030E00006208A888DF80720120A8DF80820DA0752
:1030F0008DF804303DD5CA888DF80920120A8DF864
:103100000A200A7A8DF80B204A7A8DF80C208A7AE8
:103110008DF80D20CA7A8DF80E200A7B8DF80F20CD
:1031200004AA9D0706D51546CC8905F8024B240A4A
:1031300054702A465C0706D50C691470250A240CC5
:103140005570947003321B0706D58B8A114601F81F
:10315000023B1B0A53700A4601ABD21AD2B240F2AC
:10316000A44100F045FF044B002283F8322007B051
:1031700030BD0DF10902D4E75808002007B5062339
:10318000ADF804308DF806108DF8072001AB04224D
:1031900040F2AA4100F02CFF034B002283F83220BA
:1031A00003B05DF804FB00BF5808002007B50523F5
:1031B000ADF80430ADF8061001AB042240F2AA418C
:1031C00000F016FF034B002283F8322003B05DF8B5
:1031D00004FB00BF58080020024B18731961FFF769
:1031E000D7BE00BF5808002010B50E4C04F11800DF
:1031F000FFF7B2F9012384F8313094F832304BB143
:10320000207904F11801FFF707FF002384F832301A
:1032100084F83130236903481968BDE810401EF076
:1032200069B800BF580800202DE9F341BDF820809F
:10323000099FB8F1010F04467DD9414D95F836102C
:1032400000F0E4FB18B9FD2002B0BDE8F0813E7843
:103250007F78032E1BD095F83030002B6DD1012ED6
:103260000CD195F83410204600F0D0FB0028EAD0AD
:10327000012F22D0062F19D8032218E0731E052B28
:10328000F6D9022231462046FFF778FFF0E7002FFB
:10329000F0D1B8F1020F13D195F8303003B16F615E
:1032A00095F8323083B30122032123E00422314612
:1032B0002046FFF763FF0020C6E7B8F1020F01D0F8
:1032C0000522F4E7731E032B32D8DFE803F0021760
:1032D00031211C4A00210120FFF760FE012802462F
:1032E00007D169692046FFF7F3FE012385F83030E6
:1032F000E1E701212046FFF741FFF6E70120FFF754
:103300006BFE02210246F5E7012385F83330ECE736
:103310000DF107010120FFF769FE0128024605D1E2
:103320009DF807102046FFF741FFDEE70421E1E7A3
:1033300002223146DEE70D2086E7FE2084E700BF4B
:10334000580800206C08002007B5C3074ABFADF835
:1033500002100DF1020101A98307ADF8000005D5A7
:103360000B4623F8032B120C8A7019466A46891AF9
:1033700089B240F2A24001F0C9F803B05DF804FB45
:10338000034B83F8340083F8351083F836207047F8
:1033900058080020044BDA711A69997198801168F5
:1033A00018461DF0A7BF00BF5808002001481DF0B7
:1033B000ADBF00BF58080020F8B5314C8378A27922
:1033C0009A420646254603D1BDE8F840FFF70CBFF8
:1033D000272B16D0282B1AD0122B17D194F8313066
:1033E00007780122934284F8322018D1207904F121
:1033F0001801FFF711FE002384F8323084F83130D1
:1034000004E00023636184F830306386F8BD002354
:10341000636184F83330BDE8F840FFF7C7BF94F824
:10342000333033B100230321384684F83330FFF7BB
:10343000A5FE738940F2AA42934203D1002385F886
:103440003030E3E740F2A442934203D040F2A74277
:103450009342DBD169690029D8D00A4A0120FFF7DD
:103460009DFD012805D169693846BDE8F840FFF7A0
:103470002FBE012238461146BDE8F840FFF77EBE58
:10348000580800206C08002030B587B0054600F0D1
:10349000BDFA70B3194C2046FFF704F82389227B4C
:1034A0008DF805301B0A8DF806309307A2728DF84F
:1034B000042020D523888DF807301B0A8DF80830AA
:1034C000A3788DF80930E3788DF80A3023798DF8E8
:1034D0000B3063798DF80C30A3798DF80D300DF138
:1034E0000E0201ABD21AD2B24FF48171284600F01D
:1034F0007FFD07B030BD0DF10702F2E79008002014
:10350000014B1873704700BF90080020014800F07D
:10351000DDBF00BF0C010020034A1378034214BF33
:1035200083430343137070470801002008B5044823
:1035300000F0CCFFBDE80840024800F0C7BF00BF64
:10354000380100204C010020014BC3E90201704703
:103550004C010020014B1870704700BFA4080020E8
:10356000014800F0B3BF00BF00020020014800F096
:10357000ADBF00BF14020020014BC3E90201704738
:1035800014020020014800F0A1BF00BF2C0200205F
:10359000014800F09BBF00BF44020020014BC3E97B
:1035A0000201704744020020014800F08FBF00BFB5
:1035B00058020020704770477047000083780178F8
:1035C000272B70B51B4E044601F1FF350ED1142296
:1035D0006A43B318C08899731721B15200229881A9
:1035E0009A7099809A7119819A721A61142000FB5D
:1035F0000565AB7B93B1336C2146DB682846984761
:10360000F36B2146DB6828469847A378282B05D121
:1036100028690023AB7308B11DF074FB336D0BB147
:1036200020469847F36D1BB12046BDE8704018470F
:1036300070BD00BFDC080020137A13F0010F034BAC
:1036400014BFDB6B1B6C1B68184700BFDC08002035
:1036500070B504780F4E1423013C03FB0464054647
:10366000A37B33B18278A378012A03D143F002030C
:10367000A37070BD23F00203A370336C5B6898479E
:10368000A3789B07F5D4F36B28465B68BDE87040D0
:10369000184700BFDC0800207047000008B503464B
:1036A0000278054802735B784373102221F0F2FC24
:1036B000B0FA80F0400908BD700200201FB50C4C24
:1036C000A46D94B18DF803300023ADF808308DF867
:1036D0000C30BDF81830ADF800008DF80210ADF8D0
:1036E0000A20ADF80E306846A04704B010BD00BFF8
:1036F000DC080020934228BF134607B530F821208C
:103700009A4208D020F8213000930023807B1A468B
:103710001621FFF7D3FF03B05DF804FB00211DF075
:103720001DBC000030B421B9818930BC042004F0F4
:1037300067BB054D6D6D15B1AC4630BC604730BC04
:1037400018461DF00FBC00BFDC08002000EB400055
:103750000844704710B50323B0FBF3F303EB4304B5
:10376000001B10700B7010BD08B50A4A0A4B0B49BC
:1037700083F86000C3E90F22094A0420C3E911223B
:10378000084A04F033FBBDE808400749002003F075
:10379000B7BB00BF7C600200DC08002039360000A7
:1037A0008C60020051360000BD3500000846B1B102
:1037B00091F902308A78002B094B02DADB6C73B185
:1037C00018475F2A02D95B6C9B68F9E73F2A01D949
:1037D0009B6CF9E71F2A8CBF1B6CDB6BF4E770470F
:1037E000DC0800200A4B07B598651CF089FD094BE1
:1037F0001B689B880338984206DC00220092022353
:1038000077211046FFF75AFF03B05DF804FB00BFB5
:10381000DC080020C8020020014BD865704700BFBB
:10382000DC0800201B2906D01D2914BF00230B2310
:10383000C01A1DF097BB0B23FAE70000F0B50F4646
:1038400085B001460446344816461D461DF048FE24
:10385000052F324925D1CA68087D0023063A4FF06A
:10386000060CDFB2B84204D8874209D10A2005B05D
:10387000F0BD03FB0CCE5F1C32F80EE0B64505D15F
:10388000013C51F824201AB91120F0E73B46E8E743
:1038900032F81310297032F813301B0A6B700020B5
:1038A000E5E7C8680B7D0022D7B2BB4202D89F4231
:1038B00006D1DBE7B0F800E0B64502F1010C09D112
:1038C00095F801C02B7803EB0C239BB2022B04D993
:1038D0008020CCE706306246E6E713B14088034219
:1038E000F6D0601E51F820000028CDD030F81250DC
:1038F00020F81230AB42D2D01422ADF80A308DF845
:1039000006200B69ADF804408DF80C70ADF8086026
:1039100001A89847C3E700BFD0600200400900201B
:10392000044BC3E903121875034B044AC3F8B821CA
:10393000704700BF40090020680900203D380000A2
:103940002DE9FF4707461F4C7D1E0E4601461E48C7
:103950001DF0C6FD54F825302BB9207D40001DF028
:10396000B1F944F8250054F82580B8F1000F20D0B3
:1039700016BB227D31465200404621F0C1FB18E0C3
:1039800036F8152028F8152036F8151061B18DF895
:103990000C308DF806902369ADF80470ADF808A0DE
:1039A000ADF80A2001A898470135227DEBB29A4272
:1039B000E6D804B0BDE8F08700254FF01409AA4608
:1039C000F3E700BF40090020F560020038B5044667
:1039D000074D013C014607481DF082FD55F82400C3
:1039E00020B11DF08FF9002345F8243038BD00BF09
:1039F0004009002010610200034B013853F82000F9
:103A000008B130F8110070474009002038B50C4665
:103A1000054603F07BFB084BDB6804EB440203EB39
:103A200042031B79834205D821462846BDE8384029
:103A3000FFF7E2BF002038BD40090020014B187D90
:103A4000704700BF4009002010B5104B1A7B82421E
:103A50001C461AD0187330B90D481DF041FDBDE861
:103A6000104000F067BB0B481DF03AFD6378022B55
:103A700004BF01236370E378022B04BF0123E370CA
:103A80006379022B04BF0123637110BD5809002024
:103A90002C6102004F610200014B187B704700BF90
:103AA00058090020094B421E13F8120010F00100C3
:103AB00009D003EB42035B78032B05D1A1F112037C
:103AC0005842584170470120704700BF58090020F4
:103AD00002292DE9F04705460C46904602D1002008
:103AE000BDE8F0871E29FAD0284E06EB40094700B2
:103AF00099F80130032B10D14A062ED401228118E7
:103B000089F8012022481DF0EBFC16F81530DB0780
:103B100023D4082CE3D1002022E0012BF9D111F0AD
:103B200040021AD100F1010A89F8012018485146D3
:103B30001DF0D6FCB368002BEBD099F801104A4673
:103B40005FFA8AF09847E4E71228C9D11148224663
:103B5000691C1DF0C5FC1220C2E7082CF6D112200A
:103B600098F80E2098F80D3003EB02239BB242F632
:103B70002A329342E8D1337B002BB0D03E4402225C
:103B800003487270691C1DF0ABFCA8E758090020BF
:103B9000696102008C6102000A460E4B014688B939
:103BA0005978022914BF114601215970D978022988
:103BB00014BF11460121D9705979022908BF012289
:103BC0005A71704703EB4003034803F8012C1DF0C2
:103BD00087BC00BF580900206961020010B5064B80
:103BE000013832B103EB40046170127803F8102001
:103BF00010BD23F81020FBE758090020014B986006
:103C0000704700BF58090020012A70B5054618D832
:103C10001A780F4C461E02F0070314F8162002B162
:103C20008BB11A430B4804F8162029461DF058FCA6
:103C3000A36853B104EB4602284651789847002008
:103C400070BD0D20FCE71320FAE71846F8E700BF27
:103C500058090020C3610200012A0346084605D81E
:103C60000349013B01EB430121F022BA704700BF39
:103C700058090020024B03EB400313F8010C704776
:103C80005809002007B51346002200920A46122167
:103C9000FFF714FD03B05DF804FB00002DE9F043CD
:103CA0008378212B85B005463AD1017A007800F05F
:103CB000D3FA044628B968681DF054F905B0BDE888
:103CC000F0836B6893F808805E88B8F11D0F4FD1C0
:103CD000028D171E18BF0127002A4CD028787222A7
:103CE0003146FFF7CFFFE6E7236903EB85039B78B7
:103CF00013F002030FD1B8F1230F5FFA89F005D159
:103D0000009732461321FFF7D9FCD7E71A46314610
:103D1000FFF7B8FFD2E7638D002BCFD16685CDE7E3
:103D2000222BCBD100880DF10F020DF10E01FFF710
:103D300011FD9DF80E009DF80F10288000F08CFA00
:103D400004460028BAD0C38C002BB7D00026018DC2
:103D5000C68471229DF80E00FFF794FF26852A7A0B
:103D6000236903EB82039A7842F004029A70A5E774
:103D7000478D002FB2D1B5F800902D7A1A882069AE
:103D80002946FFF7CFFCB8F11D0FADD1222394F8DF
:103D90002510A37194F824002685E684FFF7D6FC4D
:103DA000034BA0801B68204699791DF09DFA85E79A
:103DB000C802002070B50C46098D0546164619B19B
:103DC000FFF760FF00232385618D29B13246284625
:103DD000FFF758FF0023638570BD00008B78282B08
:103DE0002DE9F047064623D1CC7804B90C7ADFF8E8
:103DF00044902034E4B24FF0000A84274FF02C089E
:103E0000B57B08FB0AF0013D07FB05054D44EB8C33
:103E100023B128461DF07AFA0023EB84B07B2246BA
:103E200029460AF1010AFFF7C5FFBAF1030FE7D1EE
:103E3000BDE8F0876809002010B50021044600782D
:103E400000F00AFA014628B120780022BDE81040AF
:103E5000FFF7B0BF10BD00002DE9F74F90460646B2
:103E60001F469DF8383001930D46DDF830909DF8DF
:103E700034B01DF0A9F84146304600F0EDF9044693
:103E8000002840D0036903EB880233F828A0947817
:103E9000C4F380041DF09AF8BAF1000F3FD0002C53
:103EA0004CD129463046FFF7FDFD002837D0BA1C1B
:103EB00052453DDA0C201DF049F8044678B3212321
:103EC0008370019B068080F80880F3B1A9F10B0391
:103ED0004360606800B3FB1C0380019B4580457212
:103EE0002D0A80F808B0857223B93A4649460B304E
:103EF00021F0DEF8144B93F86000214603B0BDE8D2
:103F0000F04F1DF038B88246C4E707F10B0080B2CD
:103F1000FFF704FC6060DCE720461DF023F8019BFE
:103F200073B15946484603B0BDE8F04FFFF77ABC7D
:103F3000772229463046FFF7A5FEF0E77122F8E721
:103F400003B0BDE8F08F00BFDC080020C38C37B59C
:103F500004464BB31DF0DAF9E08C01A900F094FBA4
:103F600080B112490068022221F094F8054648B950
:103F700094F82400FFF77EFE20B194F8240029462F
:103F8000FFF70AFE0023E38494F82520236903EB5E
:103F900082039D7815F0020506D1218D94F8240046
:103FA0002A46FFF76FFE258503B030BDC4600200CE
:103FB00010B50C4B93F860000B4B01221C4691B2DC
:103FC0000132042A1873998083F83800198683F81F
:103FD0006400A3F85C1003F18403F0D1034BC4F830
:103FE000AC3110BDDC08002068090020E46102004B
:103FF00030B585B014461D2500220093CDE901524D
:104000002346FFF729FF05B030BD30B585B0144613
:104010001B2500220093CDE901522346FFF71CFF28
:1040200005B030BD024BD3F8AC315B68184700BF18
:10403000680900202DE9F04105460D201C469DF839
:1040400018800E461746FFF769FB034670B184726D
:104050000122240A02724772C47280F80C80314631
:1040600028460522BDE8F041FFF75CBBBDE8F081C2
:1040700038B5074D044694F8243005EBC30303F527
:10408000C6701DF077F800B938BD1CF03BFEF2E7B2
:10409000680900208B78282B2DE9F047DFF848903D
:1040A00005460E4607D0D9F8AC3131462846DB68C4
:1040B000BDE8F047184700274FF08408AC7B013C6F
:1040C00008FB047409EB0400FFF7D2FFA87B03F0A0
:1040D0004FF8430704D5143409EB04001DF016F91A
:1040E0002C37842FEAD1DEE76809002038B50F4D60
:1040F0002B681B680446BBB103690421987B01222D
:1041000003F00EF80A4B93F8603084F82030202337
:10411000A37623699B7B23832B6804F11400196821
:10412000BDE838401DF0E0B838BD00BFC80200202F
:10413000DC0800202DE9F04300272A4C85B0B84662
:104140004FF011092369002B33D02088083080B24A
:10415000FFF7E4FA054600283DD009230372122335
:10416000437223695B88837223695B881B0AC3726D
:10417000236903A9588800F087FA064608B38268C5
:104180004168128805F10C03184620F091FFB268CF
:10419000A18912880346134405F108029A1A92B2C3
:1041A0002B46042003F02CFE20691CF0ABFDC4F864
:1041B00010800137032F04F11404C3D105B0BDE80A
:1041C000F08323690A221B880092014608222046B8
:1041D000FFF730FFE8E7236908221B88CDF800903D
:1041E0000146F4E7DC08002030B51A490246087899
:1041F00010B10020087030BD14686578237803EB97
:1042000005239BB2B3F5245F07D019D842F6020408
:10421000A3420ED8B3F5205FEDD393681B88023319
:104220009BB2927BD2074CBF03F11000981C80B266
:10423000E1E742F60304A342DDD101230B70ECE772
:1042400042F603118B4203D942F605118B42D2D1BB
:104250000223E6E7240B002070B505460E4602F067
:1042600011FF044640B18424013D2C20654310FB1E
:1042700006540448204470BD034829461DF030F917
:104280002046F8E768090020F461020010B50C46EA
:1042900002F0DEFE38B10138842343432C2010FBAA
:1042A00004310148084410BD680900202DE9F74396
:1042B0008846002181461546FFF7E8FF064620B3F1
:1042C0002C7A122C03D9A4F11603082B20D86708E6
:1042D00033699B781B0701D50F2F16D12A4621463B
:1042E0004846FFF7F5FB70B3AA7A6B7A03EB02231B
:1042F0009BB2022C09D01E2C07D014F0400104D12F
:10430000009030692246FFF795FE03B0BDE8F083C8
:10431000522C06D0202C06D0D22C0CBF11270027FF
:10432000D6E70A27D4E71027D2E70B4AD25D4245E9
:1043300006D82A464146304603B0BDE8F043184748
:1043400003460420D5E7054B53F82730002BECD16A
:1043500003460620CDE700BF1C6202008002002059
:10436000144B154970B50022C3F8AC111349C3F8BA
:10437000B011C3E9692212491646084601250224F4
:104380000132D2B2032A1961D963996683F82420D5
:1043900083F8256083F8502083F8515083F87C20FF
:1043A00083F87D4001F1140103F18403E8D1054B4A
:1043B000036470BD680900207C600200B535000010
:1043C000DC0800200C62020007B54FF0240C00232B
:1043D000CDE9003C034B93F8603006F02DF903B0B3
:1043E0005DF804FBDC0800202DE9F043364FD7F8D8
:1043F000A44185B00026A4B930461CF063FC804679
:1044000060B1D7F8A471CDE90044CDE90244044677
:10441000E7B9324641466846FFF7D6FF05B0BDE82A
:10442000F083A57C237CD4F804800135ED1AEDB22D
:1044300008EB0515A84501D12468DCE74046FFF7E5
:10444000D3FE0644B6B208F11008F3E7B7F81090AF
:104450007D687B8A4B4501D23F68D9E72846FFF744
:10446000C3FE00B34FEA192384F800906370AB7B5E
:1044700013F0010F2B681CD0A21C03F1100153F89C
:1044800004CB42F804CB8B42F9D11234102302330F
:10449000984208D0AB6869681A88204620F008FE68
:1044A000AB681B881C4409F101091FFA89F9103512
:1044B000CFE75A781B7803EB02239BB2A3701B0A49
:1044C000E37004340223E2E76809002010B50446D3
:1044D0001CF07AFD0B4BD3F8A43100221BB1208ACB
:1044E000198A88420AD2214607481CF05FFE012043
:1044F000FFF7AAFABDE810401CF068BD1A461B6819
:10450000ECE700BF680900200C0B002073B50546DE
:104510000E4614461CF058FD284601A900F0B4F8D8
:10452000054698B18389B34212D32146406832468A
:1045300020F0BEFDAC7B14F0080402D0AB68002470
:104540001E801CF043FD204602B070BD0A24F8E72F
:104550000D24F6E730B589B04FF4A81304468068FF
:1045600004930025102306938DF81C50ADF81E50BF
:1045700010B11CF0C7FBA560606810211CF028FB7F
:104580006368059303AB019302AB009302220A4BCD
:104590004FF6FF71012000F0D9FA18B1059A1021E9
:1045A000FFF7B4FF0020FFF74FFA044B04A89B6D00
:1045B000984709B030BD00BFAC600200DC080020A5
:1045C00010B48378202B05D1007810BC0022042180
:1045D00002F0A6BD222B05D8094BD3F8AC319B685D
:1045E00010BC1847232B03D1054BD3F8B031F7E7A4
:1045F000242B02D110BCFFF7ADBF10BC704700BF29
:104600006809002037B50D4601A9144600F03CF8B2
:1046100038B183681B882B8043682360002003B077
:1046200030BD0A20FBE710B504461346A27B0068A4
:10463000D20709D402290CD10A46194620F02AFDD6
:10464000B0FA80F0400910BD1029F5D00146184697
:1046500002E01029FAD11946BDE81040FFF71EB854
:10466000022903460CD100781178884206D1587887
:104670005378C31A58425841C0B270470020FBE734
:104680001146FFF70BB8000010B5094A0346D2F8EF
:10469000A40150B1028A9A4208D8448A9C4205D3A8
:1046A000086040689B1A00EB031010BD0068F0E73B
:1046B0006809002030B50B4BD3F8A4310BB918466C
:1046C0000FE01C8A844204D98C4201D91B68F5E7AB
:1046D00020465D8A8542F9D35B68041B03EB041412
:1046E000146030BD680900200B422DE9F0410646F8
:1046F0000D4617461C4605D101290CBF0220032098
:10470000BDE8F081102908BF1C0914F00E0F01D17B
:104710000020F5E702F0FAFC220700D588B104F08A
:104720000A030A2B01D101280BD96307F0D5074BE7
:10473000D3F8B4313BB13A4629463046BDE8F041A2
:1047400018470520DCE70820DAE700BF68090020E9
:10475000F0B585B00DF10F010446154690F8240020
:104760000122FFF779FA9DF80F1020481CF0B8FEDF
:104770009DF80F309B070AD50623009394F8251067
:10478000206900230222FFF755FC05B0F0BDAB7A8B
:104790006E7A174D06EB0326B6B22B68172E9F884C
:1047A00038BF17261BF0ACFD0438874218DA2B6897
:1047B0009D880B20FEF7B2FF034648B1290A032269
:1047C00002724572817294F825102069FEF7AAFFE3
:1047D00094F8251020692B463246FEF78BFFD4E76C
:1047E0001BF08EFD051FADB2E3E700BF2E62020095
:1047F000C80200202DE9F04F937A92F8098008EB67
:1048000003281FFA88F885B00646B8F1000F78D063
:10481000117B92F80BB00BEB012B1FFA8BFBD845E9
:104820006FD8036990F8252033F8229009F1080920
:104830001FFA89F0FEF772FF0546002863D00523B2
:1048400003720123437200F10E04A94440464FF65F
:10485000FF7A03AA5946271FFFF72CFFD0B1039B0D
:104860009B7BDB072FD505F10A039F424DD13870A2
:104870000223000A07F8013C7870039B1B6805F1CE
:104880000C0203F1100153F8040B42F8040B8B42A5
:10489000F9D1123705F10A039F4236D128461CF0A0
:1048A00061FB0A243046FFF721FC96F8251074BB03
:1048B00005F10802BA1A30692B4692B2FEF732FFB0
:1048C00005B0BDE8F08F4C452246E3D8030A04F852
:1048D000040C04F8033C039B1B681B7804F8023C9F
:1048E000039B1B6850455B7804F8013C07D00130FE
:1048F00080B2834504F10404ABD21746CAE72746C9
:10490000C8E70124CEE71124CCE70024CAE73069C8
:10491000009443460422FFF78DFBD1E72DE9FF41C8
:10492000036990F82510557A33F82170937A05EBD6
:104930000325ADB2044603A92846FFF7A5FE0646A7
:10494000002855D02069F37B807B2A460121FFF7A0
:10495000CBFE034680B9B27B510716D50399D1F837
:104960000880B8F1000F10D022692946907B00968C
:104970000A22C047034650B1009394F825102069DD
:104980002B460A22FFF756FB11E0930612D4B368B8
:10499000B3F800807A1E9045A8BF90461FFA88F7AA
:1049A00007F1090080B2FEF7B9FE054678B904B0F8
:1049B000BDE8F0810F4BD3F8B881B8F1000FE6D015
:1049C00020697368807B2A460521C047D2E70B2304
:1049D000037271681FFA88F2093020F069FB7A1CB3
:1049E00094F8251020692B4692B2FEF79BFEDEE775
:1049F0000123C1E7680900202DE9F04F036917463C
:104A000090F8252033F8223089B0044603F10800DD
:104A100080B20D460593FEF781FE804600287CD0CB
:104A2000013DABB24FF0000B039300F1090A0B37C5
:104A3000D9465D46039B1BB9BBF1000F61D02DE049
:104A400017F8013C17F8025C05EB0325039BADB298
:104A5000991E8BB2284607A90393FFF715FE064659
:104A600000286ED02069F37B807B2A460121FFF766
:104A70003BFE0490002860D1B37B5A071CD5079AEF
:104A8000D2F808B0BBF1000F16D023692022987B22
:104A9000049B00962946D847834678B14046212199
:104AA000FEF7C0FE94F825102069CDF800B02B4623
:104AB0002022FFF7BFFA30E09B0631D4059BA3EB21
:104AC0000902B3681B88093A9A42A8BF1A4653469E
:104AD000C2F3072103F8022B1FFA82FB8AF80110A8
:104AE0005A461846716820F0E3FAB3681B8809F14A
:104AF0000202DA461BFA82F25B4582441FFA82F90F
:104B00001BD9212388F8083009F1010294F82510F7
:104B10002069434692B2FEF705FE09B0BDE8F08F6A
:104B2000094BD3F8B8B1BBF1000FC7D02069736847
:104B3000807B2A460521D847AEE7DDF810B0023762
:104B400078E74FF0010BA9E7680900202DE9F0474D
:104B50009A461A4B089FD3F8A4510E469046044635
:104B60004FF6FF790DB92C4625E0288AA0420FD9CF
:104B7000B0420CD92D68F5E74C45FBD03B681033AB
:104B800001343B606B8AA4B2A34209D2F2E7044627
:104B90006B8AA342EED36968201A01EB00103860DB
:104BA000B442E7D8386852464146FFF73CFD00283A
:104BB000E2D0099B1D602046BDE8F087680900200F
:104BC0002DE9F3414FF42053ADF8003042F60103D4
:104BD000ADF804304FF6FF739842074605D14FF603
:104BE000FF76304602B0BDE8F0811B4B441CD3F881
:104BF000A481A4B2B8F1000FF1D0B8F81050B8F801
:104C00001230AC4238BF2C46A34221D3D8F804302E
:104C1000651B03EB05153E466A46022128462746DA
:104C2000FFF701FD0028DCD101AA02212846FFF789
:104C3000FAFC0028D5D14FF6FF739C42CFD0B8F8CC
:104C400012300134A4B2A34205F110053E46E3D26E
:104C5000D8F80080CEE700BF680900202DE9F043B6
:104C6000036990F82510567A33F82170937A92F8F8
:104C70000B8092F80C9006EB032685B0B6B2044682
:104C800003A93046FFF700FD054600285ED02069E5
:104C9000EB7B807B32460121FFF726FDC0B9AB6874
:104CA00008EB09281B881FFA88F8434550D3AB7BD3
:104CB0005A0716D5039AD2F80890B9F1000F10D010
:104CC00023690C22987B009543463146C84750B172
:104CD000009094F82510206933460C22FFF7AAF9BA
:104CE00012E09B0613D4AB681A88013FA2EB0802BE
:104CF0009742A8BF17461FFA87F909F1090080B249
:104D0000FEF70CFD064678B905B0BDE8F083114BFF
:104D1000D3F8B891B9F1000FE5D020696B68807BBA
:104D200032460521C847D2E70D2303726968BAB23B
:104D30004144093020F0BCF909F1010294F8251032
:104D40002069334692B2FEF7EDFCDDE70120BFE7B4
:104D50000720BDE7680900202DE9F04F937A92F80B
:104D6000099009EB03291FFA89F989B080460F469B
:104D70001646B9F1000F79D0137B92F80BA00AEB1D
:104D8000032A1FFA8AFAD14570D8036990F82520C2
:104D900033F8223003F1080B1FFA8BF0FEF7BEFC4C
:104DA0000546002864D006F10D03039306F10F03B6
:104DB0000493073F072205EB0B0300F1090402727D
:104DC000BFB24846059307AB019306AB009302229E
:104DD000039B5146FFF7BAFE8346D0B905F109039C
:104DE0009C4247D128461CF0BDF80A264046FFF7F2
:104DF0007DF998F82510002E3ED105F10802A21A7F
:104E0000D8F810002B4692B2FEF78CFC09B0BDE832
:104E1000F08F0699CA7BD30720D54FB18A681288D4
:104E2000BA421BD1496804983A4620F033F9A8B930
:104E3000727BCAB9B27B282A584601D1FFF7C0FE5F
:104E4000059B221D9A42C9D84FEA1B236370030AAF
:104E500084F800B0A070E37083461446D345BDD2F9
:104E60000BF1010080B2AEE75846E9E70126BDE745
:104E70001126BBE70026B9E7D8F8100000964B468C
:104E80000622FFF7D7F8C1E72DE9F04F0539547A2C
:104E90000546907A5FFA81FA04EB0024BAF1020F1A
:104EA00089B0A4B203D0BAF1100F40F00481002CF5
:104EB00000F00381137B92F80B9009EB03291FFA92
:104EC00089F94C4500F2F9802B6995F8251033F8E3
:104ED000216002F10D03029307AB019306AB00932F
:104EE0002046029B52464946FFF730FE0446002802
:104EF00000F0E5802869069B807BDB7B2246012150
:104F0000FFF7F2FB034670B9069A917B4F0711D564
:104F10000798876877B12969887B00922146082223
:104F2000B847034640B1009395F8251028692346F9
:104F3000082277E0880652D463490298022220F0C2
:104F4000A9F8002857D006F1080B1FFA8BF0FEF7DE
:104F5000E5FB0746002800F0B48009230372069B96
:104F60009A68B2F800808472043E464528BF4646DF
:104F70005FFA86F808F1020242720492220AC272B3
:104F800000F10C0659683046424620F091F8049B27
:104F9000601C1E4407EB0B0380B20593B31E039302
:104FA00007AB019306AB00935246029B4946FFF7BD
:104FB000CDFD0446002840D0069B28699A7B510706
:104FC00033D50799D1F808B0BBF1000F2DD0807B05
:104FD0000093082200232146D84740B32DE03B4BE5
:104FE000D3F8B871002FA7D028695368807B224678
:104FF0000521B84795E7FEF74FFD0028A3D0042010
:105000002E691BF05FFE30612869036923B11C80A3
:105010005C8009B0BDE8F08F112395F8251000934E
:1050200008222346FFF706F8F3E7920611D4069B01
:1050300028699A681288424517D0039B95F8251075
:10504000286907F108029A1A92B23B46FEF76AFBFA
:10505000DFE71E4AD2F8B8B1BBF1000FE7D05B68BA
:10506000807B22460521D847B7E7DB7B807B224641
:105070000121FFF739FB0028DFD1059B08EB060B68
:105080009B45DAD8230A06F8024C06F8013C069B39
:1050900042465968304620F00BF84FF6FF739C42A9
:1050A00006D0601C049B80B281451E44BFF476AFDD
:1050B000CDF80CB0C1E7042335E7012333E70A2319
:1050C00031E711232FE700BFAC6002006809002020
:1050D0002DE9F04F0369174690F8252033F822A0F8
:1050E0000AF1080A87B004461FFA8AF00E46FEF756
:1050F00015FB0546002866D00836BB1903930F231D
:10510000093700F109090372039B9F420BD305F194
:105110000802A9EB020294F8251020692B4692B2EE
:10512000FEF700FB59E07B7817F8026B06EB0326CD
:10513000B6B205A93046FFF7A7FA804600284FD03F
:10514000206998F80F30807B32460121FFF7CCFAB6
:105150000346002845D198F80E20510723D505991C
:10516000D1F808B0BBF1000F1DD022693146907B09
:10517000CDF800800E22D847034690BB05EB0A020B
:105180004A45C1D9D8F80830D8F804101E88A2EBD7
:10519000090292B2964228BF1646484632461FF090
:1051A00087FFB144B0E79306E8D5114BD3F8B8B107
:1051B000BBF1000FE2D02069D8F80430807B324682
:1051C0000521D847D8E711230646009394F8251007
:1051D000206933460E22FEF72DFF07B0BDE8F08FA1
:1051E0000123284603931BF0BDFE039BEDE700BFA0
:1051F000680900202DE9F04F8DB04FF4205392F84C
:105200000980ADF824300539937A5FFA81FB08EB09
:105210000328BBF1020F81461FFA88F803D0BBF1C7
:10522000100F40F0AE80B8F1000F00F0AD80117BA0
:10523000D37A03EB01239BB29845039300F2B98024
:10524000D9F8103099F8251033F8216002F10D03D8
:105250001A46594609A80493FFF702FA04460028A3
:1052600000F0A9800BAB01930AAB00930399049B58
:105270005A464046FFF76AFC0446002800F09E802C
:10528000D9F810000A9B807BDB7B22460121FFF7C7
:105290002BFA0746002840F0938006F10803069396
:1052A000BDF81800FEF73AFA11230546002800F071
:1052B000898003720A9B9B68B3F800A08472063E43
:1052C000564528BF56465FFA86FA0AF10403437230
:1052D0000593230AC3722046FFF772FC0A992873CC
:1052E000020A6A7305F10E06079049683046524675
:1052F0001FF0DEFE059B1E44069B2B440693079B76
:105300004FF6FF729342A6F1040440D0581C039B51
:1053100080B283423BD30BAB01930AAB00935A4656
:10532000049B0399FFF712FC024680B30A9B99681D
:10533000098851452BD1D9F81000DB7B807B07927F
:105340000121FFF7D1F910BB069A0AEB06039A4236
:105350003BD3079A06F8042C130A06F8033C1046C0
:10536000FFF72EFC020A06F8020C06F8012C0A9937
:1053700007904968304652461FF09AFE059B1E442E
:10538000BDE70427002417E0012744464546484668
:10539000FEF7ACFE99F82510CFB905F10802A21A64
:1053A000D9F810002B4692B2FEF7BCF90DB0BDE85B
:1053B000F08F0127E6E710272546E8E70A27FBE7F5
:1053C000A046DFE704461F46E1E70746DFE7D9F8D6
:1053D0001000009743461022FEF72CFEE6E700007F
:1053E000034B01380C2202FB00304160704700BFC4
:1053F000280B0020431E0C205843014B19507047C6
:10540000280B0020431E0C205843014B18587047AE
:10541000280B00202DE9F043937A567A177A06EB91
:10542000032687B0B6B204460D46304605A991461C
:10543000FFF72AF98046002865D0206998F80F30D8
:10544000807B32461021FFF74FF9E8B998F80E201B
:10545000B8F80C30033D1007ADB223D49D4223D1E0
:10546000910709F10B0321D50599D1F80C90B9F1F9
:10547000000F1BD022693146907B0095CDE90138A1
:105480003A460023C84760B3122F39D17A282369DE
:1054900094F825203AD103EB82039A7842F008026F
:1054A0009A702DE09D42DBD90D202DE092060BD5A0
:1054B0001B4AD2F8B891B9F1000F05D020693246E5
:1054C0000921807BC847DEE71946D8F804002A4640
:1054D0001FF0EEFD98F80E301B0702D5D8F8083003
:1054E0001D80122F0CD10920FEF718F9034638B1A0
:1054F0001322027294F8251020690122FEF712F996
:1055000007B0BDE8F0830120122FF9D1009094F884
:105510002510206933461222FEF78CFDF0E700BF0C
:10552000680900202DE9F04F937A547A92F80B80A5
:1055300092F80C9004EB032489B0A4B206468A4684
:10554000204607A91546FFF79FF80746002800F0F8
:105550008C80C37B96F8240022461021FFF7C4F804
:10556000002862D108EB09281FFA88FBBB7BBBF13E
:10557000000F01D0D9067AD5AAF105091A071FFA3A
:1055800089F902D4BB894B4573D196F82400DFF822
:10559000F480C00000F5C67040441BF03CFE384B60
:1055A000CDF814801B68DB79834264D90AF10600C8
:1055B00080B21BF087FB804600285ED0BB7B9B0738
:1055C00005F10D051FD44A462946A8F80490A8F80D
:1055D0000640A8F808B008F10A001FF069FD059B15
:1055E00096F8240003EBC000414600F5C6701BF09E
:1055F000AFFD0AF1080080B2FEF790F80746E8B95F
:1056000009B0BDE8F08F079BDB689C46002BDAD021
:10561000CDE9015796F82400CDF80090002316221A
:1056200021466746B8470028CDD0009096F825104F
:10563000306923461622FEF7FDFCE1E717230372CB
:1056400044724FEA1B23240A847280F80BB0037360
:105650004A4629460D301FF02BFD96F8251030697B
:105660003B465246FEF75EF8CAE70120DDE70B2015
:10567000DBE70D20D9E70920D7E71120D5E700BFE8
:10568000C8020020680900202DE9F041537A86B055
:10569000064683B9FEF7ECFC0920FEF73FF8034607
:1056A000002838D01922027296F82510306901229C
:1056B000FEF738F82FE0012B7FD1414F90F82430CE
:1056C00007EBC303D3F88C4164B996F8240007EBC9
:1056D000C00000F5C6701BF04DFD054610BB002C48
:1056E000DAD010E0E08804A9FEF7CEFFC0B121892E
:1056F0008289914212D8A3880B44934210DD0D2475
:105700003046FEF7B5FC96F825103069009400236A
:105710001822FEF78FFC06B0BDE8F0810724EFE702
:105720002468D1E7E88805A9FEF7AEFF804620B9D6
:105730000E243046FEF79CFC19E0C37BD8063AD510
:1057400098F80E20910705F10A0314D50599CC6845
:105750008CB12A89E98896F82400CDE90138AB8814
:10576000009313461822A04704460028E1D128469A
:105770001BF0C8FAA9E7920608D5D7F8B8412CB1B2
:10578000EA8896F824000921A047EDE72C89D8F88B
:105790000400AA88204419461FF08AFC98F80E409D
:1057A00014F00804E3D0AB882989D8F808200B440A
:1057B00013800024DBE70324BBE70424A3E700BF36
:1057C000680900200B4B1A18FF2110B5117500F164
:1057D00008014FF4C86423F8114003EB41034FF470
:1057E000F061598007235375034B18440023437419
:1057F000D37510BD540B0020AC0C002008B5002060
:10580000FFF7E0FF034B044A197B117300229A73E0
:1058100008BD00BFAC0C0020540B002030B58BB08D
:1058200004460D462422002101A81FF069FC0E4900
:105830008DF8085002238DF8063001238DF80C30C6
:1058400006200B1900FB041193F821308DF80D3060
:105850001B310DF10E008DF807501AF0AFFE01A8B4
:1058600001F004FE0BB030BD540B00202DE9F041D7
:1058700007460E20884616461D461BF067FB044669
:1058800080B10023837080F80580077186712946F6
:1058900007301AF093FE044B2146187BBDE8F04117
:1058A0001BF069BBBDE8F081AC0C00202DE9F04194
:1058B00007460C200E46DDF8188015461C461BF0E6
:1058C00045FB014668B101238370074B07714671A0
:1058D0008571C471C0F80880187BBDE8F0411BF0E9
:1058E0004ABBBDE8F08100BFAC0C0020F8B504460F
:1058F0000A200F4616461D461BF028FB014678B1CC
:105900000223837004712CB13B7843713388C380C8
:105910002B780372034B187BBDE8F8401BF02BBBC0
:10592000F8BD00BFAC0C002038B5054606200C467B
:105930001BF00CFB014690B10323837005712346D5
:10594000421D2544AB4205D1054B187BBDE83840CC
:105950001BF011BB13F8010B02F8010BF2E738BD85
:10596000AC0C002070B504460E4615461BF02CFB0F
:1059700004F10800044B23F8106003EB400045805D
:10598000BDE870401BF022BB540B00202DE9F0470E
:10599000089FBDF824900C46164619883A46804662
:1059A0001D4601F085FD18B30278611C914207D1B4
:1059B0002246314602301FF07BFB0120BDE8F08714
:1059C000B5F800C06144891A89B249451FFA82FAC4
:1059D0000ED80AF1010A00EB0A01CA1BD2B2ACEBE5
:1059E00002021FF073FB2B88A3EB0A0AA5F800A0A4
:1059F0002B881A1901324A450EDAF818621CFA543B
:105A0000314680F80180224602301FF051FB298880
:105A100002340C442C80D0E70020CFE72DE9F84376
:105A20001446054688461A462188BDF8207009208C
:105A30001E4601F03DFD28B921883246082001F0BC
:105A400037FD80B190F80090228809F1010900EB40
:105A500009018B1BDBB2D21A1FF038FB2388A3EBA2
:105A60000909A4F8009023887A1E9A421BDDEA18DF
:105A700001329742DEBFBD1EED1AEDB206EB030008
:105A8000D4BF08220922691CF154023000F8012C0D
:105A900041462A461FF00CFB208802300544258031
:105AA0000120BDE8F8830020FBE700000A4A0E232E
:105AB00058431318FF211154002201217F205970EF
:105AC0009A70DA70187159719A71D9711A725A7282
:105AD0009A725A73704700BF780B002010B5084CBB
:105AE0004318994201D1002010BD11F8012B224426
:105AF000107D0128F8D00428F3D10120F4E700BF7D
:105B0000540B0020034BD87D012894BF00200120B6
:105B1000704700BF540B0020034B587901288CBFFD
:105B200000200120704700BF860B00207047000056
:105B30008378034A03F0070352F82330184700BF65
:105B4000F46402008378034A03F0070352F8233019
:105B5000184700BF206502001FB50F4AD27D4823B9
:105B6000111FADF8063001294FF000038DF8083001
:105B700001D9012A07D18DF80930ADF80430074B5F
:105B800001A89B6898470020FFF790FFFFF736FEBB
:105B900005B05DF804FB00BF540B0020AC0C0020E6
:105BA000411D00791AF009BA2DE9F04F8BB0067942
:105BB0008DF80B6081460DF10B010120FFF78EFF80
:105BC000054628B173481BF08BFC0BB0BDE8F08F85
:105BD00099F80540DFF8CC8199F806A0012C1BBF8D
:105BE0000E2303FB068327465F781C22002103A8AF
:105BF00009F107091FF084FA002F00F08F80042CB0
:105C000098BF654B4FF0010798BF195D8DF8227062
:105C100088BF0021BC4241F0100103D0251F18BFEE
:105C2000012514B1A01E4742474111F0080F5B4BFC
:105C3000ADF80C1008D106F1080233F812100491E7
:105C400003EB420252880592DFF854B133449BF8CB
:105C50000E005B7D8DF8183001F064FC0BEB060341
:105C60008DF81AA05B7C8DF820300E23734308EB6F
:105C7000030A8DF819009AF804208DF821209AF86B
:105C80000A208DF825209AF80820CDF81C908DF870
:105C900026207DB99AF80B2062B118F80330FF2B4B
:105CA00008D000952B462A46032130461AF089F980
:105CB0008AF80B508FB90E23734308EB03052A7B38
:105CC0005AB118F80330FF2B07D000973B463A46ED
:105CD000032130461AF077F92F7303A930461AF0E2
:105CE0006EF90E23734308F803409BF80E30012B26
:105CF00009D19BF8053003F0C003C02B03D128491C
:105D000030461AF05AF914F0FA0F0CBF01230023A1
:105D1000324602210E2001F04FFB56E7ACB3052CB2
:105D200035D0012C2ED0221F51425141022C01D0DE
:105D3000072C0AD141F0020100250127D223E340BC
:105D4000DB0705D541F0040102E04FF00105F5D96C
:105D50000E2303FB068292780AB141F0200103FB77
:105D60000683DB780BB141F040010E2303FB068371
:105D70005A798DF822209A79DB798DF823208DF8D5
:105D8000243052E725462146DCE727460524012535
:105D90002946DDE770620200EE640200540B002029
:105DA000AC0C0020780B00202DE9F74394466E469A
:105DB0009DF82820DFF8509007460025B0464FF0A8
